:020000040800F2
:10000000780700209D0100089B050008970500085F
:1000100099050008E5010008CF0A0008000000006B
:10002000000000000000000000000000650600085D
:10003000D3040008000000009D05000839070008EF
:10004000B7010008B7010008B7010008B7010008B0
:10005000B7010008B7010008B7010008B7010008A0
:10006000B7010008B7010008B7010008B701000890
:10007000B7010008B7010008B7010008B701000880
:10008000B7010008B7010008B7010008B701000870
:10009000B7010008B7010008B7010008B701000860
:1000A000B7010008B7010008B7010008B701000850
:1000B000B7010008B7010008B7010008B701000840
:1000C000B7010008B7010008B7010008B701000830
:1000D000B701000825080008B7010008B7010008AB
:1000E000B7010008B7010008B7010008B701000810
:1000F000B7010008B7010008B7010008B701000800
:10010000B7010008B7010008B7010008B7010008EF
:10011000B7010008B7010008B7010008B7010008DF
:10012000B7010008B7010008B7010008B7010008CF
:10013000B7010008B7010008B7010008B7010008BF
:10014000B7010008B7010008B7010008B7010008AF
:10015000B7010008B7010008E9010008B70100086D
:10016000B7010008B7010008B7010008B70100088F
:10017000B7010008B7010008B7010008B70100087F
:10018000B7010008B7010008DFF80CD000F018F83C
:1001900000480047F10A0008780700200648804719
:1001A00006480047FEE7FEE7FEE7FEE7FEE7FEE75C
:1001B000FEE7FEE7FEE7FEE73D07000889010008CD
:1001C000064C074D06E0E06840F0010394E80700A4
:1001D00098471034AC42F6D3FFF7DAFF180B00084B
:1001E000380B0008FEE7000070B5074C074D2146AC
:1001F000284600F0EFF8002805D021462846BDE843
:10020000704000F01BB870BD00800028B864024048
:10021000074A904201D2074801E005481038064AD3
:100220008B0001EA020101D5C1607047816070470F
:1002300010640240006002407D0F7D0F074A90422B
:1002400001D2074801E005481038064A8B0001EA50
:10025000020101D5C160704781607047106402409F
:10026000006002407D0F7D0F0029016802D041F03F
:10027000010101E021F00101016070472DE9F04327
:10028000016821F00101016000210160416081608D
:10029000C1600161212141613C493C4A3D25103941
:1002A000904202D18D60BDE8F083384A4FF4746605
:1002B0001832904201D18E60F5E7344A4FF474173A
:1002C0003032904201D18F60EDE7304A4FF0746CCC
:1002D0004832904202D1C1F808C0E4E72B4B2C4AC7
:1002E0006033984201D1CA60DDE7284C294B78344D
:1002F000A04201D1CB60D6E7DFF89080264C08F110
:100300009008404501D1CC60CDE7DFF880804FF008
:100310003D5908F1A808404502D1C1F80C90C2E748
:100320001E49DFF878800839404501D10D60BAE7F1
:100330001A4D1835A84201D10E60B4E7174D30357B
:10034000A84201D10F60AEE7144D4835A84202D152
:10035000C1F800C0A7E7114D10496035091FA84238
:1003600001D10A609FE70D4A7832904201D10B60BB
:1003700099E70A4A9032904201D10C6093E7074A0C
:10038000A83290428FD1C1F800908CE710600240F3
:100390003D000020400F002000003D20106402407E
:1003A0000246094B00209A4201D2084A01E0064A5F
:1003B000103A8B0001D5526800E01268044B1A40D5
:1003C0000A4200D0012070471064024000600240E1
:1003D0007D0F7D0F30B5104A0024904201D20F4BA3
:1003E00001E00D4B103B0E4A114205D01E2202EADD
:1003F000D12502682A4002E0406900F080028800AE
:1004000001D5586800E01868064B1840084201D032
:1004100002B10124204630BD106402400060024059
:100420003C0F3C0F7D0F7D0F10B50C0601F01E0335
:1004300004D54AB1446944F08004446180290CD059
:1004400042B10168194307E0426922F0800242612B
:10045000802902D001689943016010BD30B503685E
:10046000124ACC6813400A682243D1E905452C435F
:100470002243CC6922430C6A22434C6A22438C6A91
:1004800022434C6B22438C6B22431A430260426925
:1004900022F00703D1E90B2422431A4342610A697F
:1004A00042604A6882608968C16030BD3F801CF04C
:1004B0000021016041608160C16001614161816131
:1004C000C161016241628162C16201634163816312
:1004D00070477047F0B50023012403270D6804FA24
:1004E00003F21540954242D1D0F800C05E0007FAF1
:1004F00006F52CEA050CC0F800C091F804C0D0F84D
:1005000000E00CFA06FC4CEA0E0CC0F800C091F8B2
:1005100004C0BCF1010F02D0BCF1020F1FD1D0F812
:1005200008C02CEA050CC0F808C091F805C0D0F846
:1005300008E00CFA06FC4CEA0E0CC0F808C0D0F833
:1005400004C02CEA020CC0F804C0426891F806C04E
:100550000CFA03FC1FFA8CFC42EA0C024260C268EF
:10056000AA43C260CA79C568B2402A43C2605B1C14
:10057000102BB3D3F0BD4B07DB0E9A40C90810B562
:1005800000EB8100016A0F249C40A1430162016AD3
:100590001143016210BDFEE7FEE77047704700009F
:1005A000044A0029116801D0014300E08143116031
:1005B0007047000030380240044A0029116801D019
:1005C000014300E08143116070470000443802405D
:1005D00070B5204A1168204C11F00C0104D01F4E58
:1005E000042903D0082903D004601BE0066019E049
:1005F0001849091F0B68C3F380550B6803F03F03CC
:1006000015B1B6FBF3F301E0B4FBF3F30C68096832
:10061000C4F388146343C1F30141491C4900B3FB8F
:10062000F1F1016011680F2303EA11110C4B5C5CBE
:100630000168E14041601468072505EA94241C5DC7
:1006400021FA04F48460126805EA52329A5CD140BF
:10065000C16070BD083802400024F40040787D017C
:10066000000000207047000010B54FF416510448F8
:1006700000F092F9002801D04FF0FF3010BD0000CB
:10068000001001400CB500202749019000900A6835
:1006900042F480320A604FF4A0630A6802F4003228
:1006A0000092019A521C0192009A12B9019A9A4240
:1006B000F3D10A68920334D5012000901A484030E3
:1006C000026842F0805202601848026842F4804298
:1006D00002601548083002680260026842F4004275
:1006E0000260026842F4A0520260031F104A1A60BE
:1006F0000A6842F080720A600A689201FCD50D4ACD
:1007000040F205611160016821F003010160016898
:1007100041F0020101600168C1F381010229FAD1AF
:100720000CBD00900CBD000000380240007000407D
:1007300019544007003C0240704700000F4810B5B4
:10074000016841F0010101600C4A0021083211608A
:1007500002680B4B1A400260031D0A4A1A600268C5
:1007600022F48022026005480C300160FFF78AFF06
:1007700005494FF00060086010BD000000380240DD
:10078000FFFFF6FE1030002408ED00E02DE9F047F1
:1007900005460078002458B11D4E30884006FCD52F
:1007A000DFF870804FF020591B4F98F8000007E0E9
:1007B0004FF0FF30BDE8F08749463846FFF7F0FDBF
:1007C0000028F9D08021304600F060F80028F9D0E8
:1007D000124840F28F120026297841B10155641C5D
:1007E0006D1CA4B29442F7D10655641CA4B20A4809
:1007F000001D04600A48494604613846FFF708FDB9
:1008000001213846FFF730FD88F800600020D1E76D
:100810000010014010000020B8640240A801002030
:100820003803002010B50D4C40F22551204600F051
:1008300034F800280AD0A1882046CAB208496E2A96
:1008400005D0084B48781A54401C487010BD00224F
:100850004A70BDE81040034900F028B9001001407B
:1008600010000020180000200029818902D041F4E6
:10087000005101E021F4005181817047002A828AF1
:1008800001D00A4300E08A4382827047024600207A
:1008900012880A4200D00120704730B501F01F02D3
:1008A00001240025C1F3421304FA02F2012B0FD0F8
:1008B000022B0FD0838A4FEA11210088134204FAD9
:1008C00001F400EA040001D000B10125284630BD42
:1008D0008389F0E7038AEEE77FB50446008A0D4678
:1008E00020F44051E88808432082A08941F20C613D
:1008F0008843A9882A8911436A8902431143A18147
:10090000A08A20F44071A8890843A0826846FFF7B6
:100910005FFE1D48844202D01C48844201D10398E6
:1009200000E00298A1890904002900EBC00101EB55
:100930000010296802DA4FEA410101E04FEA810123
:10094000B0FBF1F26420B2FBF0F14FEA01114FEA83
:1009500011136FF018056B4302EB8302A3891D048A
:100960004FF0320306D503EBC202B2FBF0F000F009
:10097000070005E003EB0212B2FBF0F000F00F00FD
:10098000084320817FBD0000001001400014014099
:10099000C1F30801818070472DE9F0473F4E86B0D2
:1009A0008A460546B04276D101211020FFF704FEA9
:1009B00001210846FFF7F4FD01218805FFF7F0FD4E
:1009C0004FF4C060DFF8D880049007220921404628
:1009D000FFF7D1FD07220A214046FFF7CCFDDFF8E3
:1009E000C4904846FFF74AFC2F48FFF761FD2E48A8
:1009F0004FF00061002401604021C160A0F5C87182
:100A0000816040F28F110161311D41600915C0E91B
:100A10000541C4610462446201278462C0E90B4756
:100A20004463014684634846FFF718FD0122802194
:100A30003046FFF723FF012210214846FFF7F4FC60
:100A400001214846FFF710FC02208DF814008DF8B4
:100A500016408DF815008DF8177004A94046FFF771
:100A600039FDADF808400C20ADF80440ADF80A009F
:100A7000CDF800A0ADF80640ADF80C406946284618
:100A8000FFF72AFF01212846FFF7EEFE002006B0FF
:100A9000BDE8F087FFE74FF0FF30F8E700100140B6
:100AA00000000240B86402403803002070B50C46D4
:100AB000054608E028884006FCD521782846FFF73F
:100AC00067FF14F8010B20780028F3D170BDFEE712
:100AD00002E008C8121F08C1002AFAD17047704707
:100AE000002001E001C1121F002AFBD17047000065
:100AF00010B5FFF7B9FD10B14FF0FF3010BD02A0E7
:100B0000FFF744FEFEE7000048656C6C6F20576FEE
:100B1000726C64210D0A0000380B000800000020F0
:100B200018000000D00A0008500B00081800002030
:100B300060070000E00A0008000000000102030452
:100B40000102030406070809010000001027000045
:040000050800018965
:00000001FF
