:020000040800F2
:10000000800B00209D010008A5110008991100082F
:100010009B110008BD0C00087B1D000800000000BB
:100020000000000000000000000000005114000863
:10003000D30F0008000000007113000889150008A4
:10004000B7010008B7010008B7010008B7010008B0
:10005000B7010008B7010008B7010008B7010008A0
:10006000B7010008B7010008B7010008B701000890
:10007000B7010008B7010008B7010008B701000880
:10008000B7010008B7010008B7010008B701000870
:10009000B7010008B7010008B7010008B701000860
:1000A000B7010008B7010008B7010008B701000850
:1000B000DD150008B7010008B7010008B701000806
:1000C000B7010008B7010008B7010008B701000830
:1000D000B701000889180008B7010008B118000826
:1000E000B7010008B7010008B7010008B701000810
:1000F000B7010008B7010008B7010008B701000800
:10010000B7010008B7010008B7010008B7010008EF
:10011000B7010008B7010008B7010008B7010008DF
:10012000B7010008B7010008B7010008B7010008CF
:10013000B7010008B7010008B7010008B7010008BF
:10014000B7010008B7010008B7010008B7010008AF
:10015000B7010008C10C0008E90C0008B70100084D
:10016000B7010008B7010008B7010008B70100088F
:10017000B7010008B7010008B7010008B70100087F
:10018000B7010008B7010008DFF80CD000F03EFB13
:10019000004800478D260008800B00200648804755
:1001A00006480047FEE7FEE7FEE7FEE7FEE7FEE75C
:1001B000FEE7FEE7FEE7FEE78D150008890100086F
:1001C00040EA01039B0703D009E008C9121F08C0D9
:1001D000042AFAD203E011F8013B00F8013B521E59
:1001E000F9D2704710B5044604E00B7800F8013BE3
:1001F00003B1491C521EF8D2204610BD034611F827
:10020000012B00F8012B002AF9D118467047000095
:1002100070B50F4D00B92868002412E00A4602E0CC
:100220009E4203D0521C1378002BF9D1DAB222433C
:1002300005D02BB124B1002100F8011B04E00446D5
:10024000401C0678002EE9D12860204670BD0000D1
:100250003000002030B50546002008E00A4602E0E4
:10026000A34207D0521C1378002BF9D1401C2C5C00
:10027000002CF3D130BD2DE9FE4F804681EA03000A
:10028000C00F0C46009021F0004123F00045B8EB70
:100290000200A94105D24046214690461C460B4625
:1002A000024623F00040104304D14046214603B0EB
:1002B000BDE8F08F270DC7F30A00C3F30A5102907F
:1002C000401A0190402866DAC3F3130040F4801B03
:1002D0000098924620B10023D2EB030A63EB0B0B8C
:1002E00001985946C0F14002504600F021F90646F7
:1002F0000D4650465946019A00F029F910EB0800C6
:100300006141002487EA115284EAE7731A433BD023
:10031000009A3AB3019A012A4FEA075210DC001BF7
:1003200061EB02014FF0004202EA0752CDE90042C0
:10033000001C41F5801132462B4600F076F9B6E7F5
:10034000001B61EB0201001C41F5801300185B41AA
:100350002018A2F5001747EB030140EAD570B61943
:100360006D4111E06D084FEA360645EAC0754FEA67
:100370000752001B61EB0201001C41F58011490886
:100380004FEA30000019514132462B4603B0BDE818
:10039000F04F00F03DB90098012240000023D0EB5F
:1003A000020263EBE073009821464FEAE074B8EB79
:1003B000000061EB0401E9E783F000435BE781F0B3
:1003C000004158E72DE9F04D81EA030404F0004BA9
:1003D00021F0004514464FF0000A23F0004150EA96
:1003E000050220D054EA01021DD0C5F30A57024687
:1003F000C5F31303C1F31300C1F30A5640F480158B
:1004000043F48013A7EB0608101BD64608F2FD380C
:1004100073EB050002D308F1010801E092185B417B
:10042000B8F1000F03DA00200146BDE8F08D00208E
:100430004FF48011064684460EE0171B73EB050748
:1004400005D3121B63EB050306434CEA010C490874
:100450004FEA300092185B4150EA0107EDD152EAB1
:10046000030012D082EA040083EA0501084303D1A5
:1004700000224FF0004308E0101BAB4102D20122E2
:10048000002302E06FF0010253101AEB06004CEB60
:10049000085110EB0A0041EB0B01BDE8F04D00F0F4
:1004A000B7B830B50B46014600202022012409E0F0
:1004B00021FA02F59D4205D303FA02F5491B04FA1D
:1004C00002F52844151EA2F10102F1DC30BD2DE930
:1004D000F05F0546002092469B46884606468146C8
:1004E00040241BE0284641464746224600F0A0F93A
:1004F00053465A46C01A914110D311461846224617
:1005000000F016F82D1A67EB01084F46224601202D
:10051000002100F00DF817EB00094E41201EA4F158
:100520000104DFDC484631462A464346BDE8F09FD9
:10053000202A04DB203A00FA02F1002070479140A3
:10054000C2F1200320FA03F3194390407047202A98
:1005500006DBCB17203A41FA02F043EAE07306E0EB
:1005600041FA02F3D040C2F12002914008431946FB
:10057000704700000FB4002300B589B00CA90091AA
:100580000B996FF00042CB601E4B06931E4B0793F6
:100590000423CDE901321D4A089202466B46002031
:1005A00000F0DCF909B05DF814FB70B586B00646C2
:1005B0004FF0FF300091CDE90101002015460C46B7
:1005C00004903246694604A8FFF7D4FF0346049816
:1005D000211825B108B10A4600E022462A60002809
:1005E0000DD0002B02DD0098884208D0081B009433
:1005F000CDE901043246694604A8FFF7BBFF06B007
:1006000070BD0000990B0008B70B000851080008E6
:1006100010B5002B08DA401C41F1000192185B4133
:100620001A4301D120F0010010BD2DE9F04D924692
:100630009B4611B1B1FA81F202E0B0FA80F22032A9
:100640009046FFF775FF04460F4640EA0A0041EA6C
:100650000B0153465A46084303D120463946BDE8AC
:10066000F08D114653EA010015D0C8F14002504602
:1006700000F0DEF805460E46504659464246FFF762
:1006800057FF084301D0012000E00020054346EA5F
:10069000E0762C4337430A984FEA4453A0EB080016
:1006A0004FEAD4240A304FF0000244EA47544FEA9C
:1006B000D72502D500200146D1E70105101969416F
:1006C000DDE9084500196941BDE8F04DA0E72DE9D5
:1006D000FE4F81EA030404F0004421F0004100943D
:1006E0004FF0000B23F0004350EA010402D052EA1D
:1006F000030404D10020014603B0BDE8F08FC3F32A
:100700000A54C1F30A552C44A4F2F3340194A0FB1B
:100710000254C1F3130141F48011C3F3130343F4F2
:10072000801301FB024400FB034E840A970A44EA4B
:10073000815447EA8357A4FB076802958D0A05FB9D
:1007400007854FEA932C04FB0C542705029D4FEAC2
:10075000065847EA1637B5EB08056EEB070C870E0F
:10076000920E47EA811742EA8312A7FB0201B6EB19
:100770000B0164EB00042B0D43EA0C335E1844EBD1
:100780001C50DA465146E7FB0201C5F313044FEA59
:100790000B3343EA14534FEA0432019C43EA060345
:1007A000A4F10C040294009CCDE900B4FFF73DFFD6
:1007B000A2E7C1F30A52C1F3130140F2FF3341F43F
:1007C00080119A4202DA00200146704740F233431A
:1007D0009A42A2F2334202DC524200F029B8FFF7FB
:1007E000A7BE000030B5002904DB4FF000444042B2
:1007F00064EB0101002B04DB4FF00044524264EB38
:100800000303994208BF904230BD0000064C074DDB
:1008100006E0E06840F0010394E8070098471034D0
:10082000AC42F6D3FFF7B4FC2C2700084C27000895
:10083000202A04DB203A21FA02F00021704721FA35
:1008400002F3D040C2F1200291400843194670479C
:10085000C0B24FF4F05100F0BFB900002DE9FF4FD6
:10086000087881B09946FF2805D0491C2D2804D06E
:100870000024002308E000230BE00124F9E703EB48
:10088000830300EB4303491C0878FF28F7D104B128
:100890005B4200200090147801462D2C01D02B2CB7
:1008A00004D1521C2D2C12D000240094002516785F
:1008B000FF2E0ED00A24A0FB04C801FB04810027F0
:1008C00000FB0711521C16EB0C006941EFE70124F5
:1008D000EBE7994450EA010206D101980021C0E9F2
:1008E000001105B0BDE8F08F0024A84D2646DFF8C2
:1008F000A08200F085F982468B46B9F1000002DA49
:10090000C9F1000714E0074612E0F80707D02246B5
:100910002B4630464146FFF7DAFE06468846224619
:100920002B4610461946FFF7D2FE04460D467F10AF
:10093000002FEAD1B9F1000F3246434650465946DE
:1009400002DAFFF73FFD01E0FFF7C1FE009A0AB1AE
:1009500081F00041019AC2E90001C2E72DE9FF4F91
:100960001F468DB0D7E901464FF0FF382E2045468F
:100970004FF000090B90B9696D1C0E988847396AD1
:10098000824688470028F6D11AF101000AD024F4E3
:10099000D064002E12DDBAF12B0F08D0BAF12D0F62
:1009A0000CD102E0404611B09CE744F48064B96980
:1009B0006D1C0E9888478246A6F1010669466005BF
:1009C00001D52D2000E02B208DF8000001F1010B56
:1009D0000DF1200809E0B9696D1C0E988847824620
:1009E0000F98761E44F400740560002E02DDBAF103
:1009F000300FF0D00B998A453ED144F0800406E0D8
:100A00000F99681CA9F1010944F400740860761E6E
:100A1000B9696D1C0E98884782463028F0D02BE0CB
:100A20000B998A4505D1200603D444F08004761E34
:100A300018E0504601F074FA08B3761E0DF1130168
:100A400044F400748B4508D2AAF130000BF8010B76
:100A5000200607D5A9F1010003E0200602D409F120
:100A600001008146A00502D50F99681C0860B9698C
:100A70006D1C0E9888478246002ED1DC54E0002E73
:100A800052DDBAF1650F02D0BAF1450F4CD1A00585
:100A90004AD5761EB96924F440746D1C0E988847B7
:100AA0008246002E0DDD2B2804D0BAF12D0F08D17F
:100AB00044F48074B9696D1C0E9888478246A6F18B
:100AC0000106E00501D52D2100E02B2108F8011BCE
:100AD000CDF82C8021E0761E0DF1290144F400743C
:100AE00088450CD2AAF1300010F0FF0088F8000011
:100AF00002D10B99884509D908F1010806E0E00503
:100B000001D5244801E042F20F708146B9696D1C9D
:100B10000E98884782460F980560002E04DD5046E7
:100B200001F0FEF90028D6D1F9690E988847FF2018
:100B30008BF8000088F800000020069007904B46D4
:100B40006A4608A906A8FFF789FEA00502D46FF03F
:100B5000010028E714F0240F0AD0E00714D1DDE9E2
:100B600006123868031D3B600068C0E900120BE004
:100B7000DDE9060100F050F80146E00704D13868CD
:100B8000021D3A600068016028460CE7000024401E
:100B90000000F03FF1D8FFFF426842B1016811F850
:100BA000013B23B1521EC0E90012184670470121D3
:100BB000C160881E704742685AB1C368016843B972
:100BC00083688B4205D0491E521CC0E900120020E8
:100BD00070474FF0FF3070477F2801D9002208E0AE
:100BE000064A02EB5002C007127800D1120902F047
:100BF0000F0201209040084070470000EC260008DA
:100C00000EB540F2334202920022CDE90022134693
:100C1000FFF70BFD03B000BD01F0004330B421F03D
:100C2000004150EA010206D00A0DA2F56072C1F33C
:100C30001301002A02DC30BC00207047440F44EA54
:100C4000C104C100E01830BC00EBC250AFF300801B
:100C50000029A8BF7047401C490008BF20F00100D0
:100C6000704710B4B0FA80FC00FA0CF050EA0104AE
:100C700004BF10BC704749B1CCF1200421FA04F440
:100C800011FA0CF118BF012121430843A3EB0C0119
:100C9000CB1D0106000A002BBEBF002010BC704710
:100CA00000EBC35010440029A4BF10BC7047401C87
:100CB000490008BF20F0010010BC7047FEE70000AB
:100CC00070B5074C074D2146284600F003F900286F
:100CD00005D021462846BDE8704000F02FB870BD11
:100CE00000802020A064024070B5074C074D2146CB
:100CF000284600F0EFF8002805D021462846BDE838
:100D0000704000F01BB870BD00800028B86402403D
:100D1000074A904201D2074801E005481038064AC8
:100D20008B0001EA020101D5C16070478160704704
:100D300010640240006002407D0F7D0F074A904220
:100D400001D2074801E005481038064A8B0001EA45
:100D5000020101D5C1607047816070471064024094
:100D6000006002407D0F7D0F0029016802D041F034
:100D7000010101E021F00101016070472DE9F0431C
:100D8000016821F001010160002101604160816082
:100D9000C1600161212141613C493C4A3D25103936
:100DA000904202D18D60BDE8F083384A4FF47466FA
:100DB0001832904201D18E60F5E7344A4FF474172F
:100DC0003032904201D18F60EDE7304A4FF0746CC1
:100DD0004832904202D1C1F808C0E4E72B4B2C4ABC
:100DE0006033984201D1CA60DDE7284C294B783442
:100DF000A04201D1CB60D6E7DFF89080264C08F105
:100E00009008404501D1CC60CDE7DFF880804FF0FD
:100E10003D5908F1A808404502D1C1F80C90C2E73D
:100E20001E49DFF878800839404501D10D60BAE7E6
:100E30001A4D1835A84201D10E60B4E7174D303570
:100E4000A84201D10F60AEE7144D4835A84202D147
:100E5000C1F800C0A7E7114D10496035091FA8422D
:100E600001D10A609FE70D4A7832904201D10B60B0
:100E700099E70A4A9032904201D10C6093E7074A01
:100E8000A83290428FD1C1F800908CE710600240E8
:100E90003D000020400F002000003D201064024073
:100EA0000246094B00209A4201D2084A01E0064A54
:100EB000103A8B0001D5526800E01268044B1A40CA
:100EC0000A4200D0012070471064024000600240D6
:100ED0007D0F7D0F30B5104A0024904201D20F4B98
:100EE00001E00D4B103B0E4A114205D01E2202EAD2
:100EF000D12502682A4002E0406900F080028800A3
:100F000001D5586800E01868064B1840084201D027
:100F100002B10124204630BD10640240006002404E
:100F20003C0F3C0F7D0F7D0F10B50C0601F01E032A
:100F300004D54AB1446944F08004446180290CD04E
:100F400042B10168194307E0426922F08002426120
:100F5000802902D001689943016010BD30B5036853
:100F6000124ACC6813400A682243D1E905452C4354
:100F70002243CC6922430C6A22434C6A22438C6A86
:100F800022434C6B22438C6B22431A43026042691A
:100F900022F00703D1E90B2422431A4342610A6974
:100FA00042604A6882608968C16030BD3F801CF041
:100FB0000021016041608160C16001614161816126
:100FC000C161016241628162C16201634163816307
:100FD0007047704701B50098411E00910028FAD172
:100FE00008BD000002490120486000F07FB8000001
:100FF00028000020F0B50023012403270D6804FA1F
:1010000003F21540954242D1D0F800C05E0007FAC5
:1010100006F52CEA050CC0F800C091F804C0D0F821
:1010200000E00CFA06FC4CEA0E0CC0F800C091F887
:1010300004C0BCF1010F02D0BCF1020F1FD1D0F8E7
:1010400008C02CEA050CC0F808C091F805C0D0F81B
:1010500008E00CFA06FC4CEA0E0CC0F808C0D0F808
:1010600004C02CEA020CC0F804C0426891F806C023
:101070000CFA03FC1FFA8CFC42EA0C024260C268C4
:10108000AA43C260CA79C568B2402A43C2605B1CE9
:10109000102BB3D3F0BD000002490020486000F0DF
:1010A00015B80000280000204B07DB0E9A40C90845
:1010B00010B500EB8100016A0F249C40A14301623E
:1010C000016A1143016210BD4183704710B54FF4AE
:1010D00080410348FFF7F8FF02490020086010BD77
:1010E00000080240280000200183704710B54FF42B
:1010F00080410348FFF7F8FF02490120086010BD56
:10110000000802402800002010B5094C6068002843
:101110000DD1084822684FF4804112B1FFF7D4FF87
:1011200001E0FFF7E1FF2068C0F10100206010BD81
:1011300028000020000802401CB50F4800240121AF
:1011400004604460042000F015F94FF480400090E2
:1011500001208DF8040002208DF805008DF806406E
:101160008DF8074069460548FFF744FF0121042038
:1011700000F000F91CBD000028000020000802401B
:101180000149D1E900017047100000200149D1E96F
:101190000201704710000020FEE7FEE7004870479C
:1011A000140200207047000070B50F21C478027847
:1011B00001234FF0E026E4B1124C246804F4E0640B
:1011C000C4F5E064C4F30724C4F10405E1404478A5
:1011D000AC4085780D4025430B4C29011155007812
:1011E00000F01F018B40400906EB8000C0F8003181
:1011F00070BD02F01F008340500906EB8000C0F86C
:10120000803170BD0CED00E000E400E02DE9F04F0E
:101210009DB0FFF7C3FF014650225048FEF7D0FFB4
:101220004E484FF0FF36017824297DD14178472977
:101230007AD18178502977D1C178472974D1017941
:101240004C2971D141794C296ED1002444A1801DD3
:10125000FEF7DEFF01466D460CE000BF05EB041013
:10126000641CE4B21022FEF7BDFF3DA10020FEF792
:10127000CFFF01460029F1D1052C6DD339A1684675
:10128000FEF7E8FF04462819801E002101F020FA2D
:1012900006460F46A21E69461CA8FEF791FF0DF1F7
:1012A000700909EB04014FF0000801F8028C414677
:1012B000484601F00DFA2C4CC4E900019DF81020BD
:1012C000532A04D181F0004187F000476160DFF8C4
:1012D0009CB000225B4630463946FFF773F8D4E9EC
:1012E0000023FEF7C8FFC4E9000108A81DA182463B
:1012F000FEF7B0FF0746E8191E30002101F0E8F9BB
:1013000005460E46BA1E51461CA8FEF759FF09EBCA
:1013100007011CA801F8028C002101F0D9F9C4E9E9
:1013200002019DF8302000E016E0572A04D181F038
:10133000004186F00046E16000225B4628463146C7
:10134000FFF740F8D4E90223FEF795FFC4E9020154
:1013500000201DB0BDE8F08F3046FAE734000020D1
:101360002C2A00002E0000001000002000004E403B
:1013700070470000044A0029116801D0014300E0D1
:10138000814311607047000030380240044A002950
:10139000116801D0014300E08143116070470000F3
:1013A00040380240044A0029116801D0014300E09E
:1013B00081431160704700004438024070B5204AF4
:1013C0001168204C11F00C0104D01F4E042903D0E9
:1013D000082903D004601BE0066019E01849091FC2
:1013E0000B68C3F380550B6803F03F0315B1B6FBE0
:1013F000F3F301E0B4FBF3F30C680968C4F3881459
:101400006343C1F30141491C4900B3FBF1F10160A1
:1014100011680F2303EA11110C4B5C5C0168E14079
:1014200041601468072505EA94241C5D21FA04F440
:101430008460126805EA52329A5CD140C16070BD86
:10144000083802400024F40040787D0100000020AC
:101450007047000070B54FF4E1310D4800F01CFBFF
:101460004FF0FF3458B94FF416552946094800F09B
:1014700013FB20B92946084800F00EFB08B12046AE
:1014800070BD06A11248FEF7B9FE002070BD000035
:10149000001001400014014000480040244750471C
:1014A0004C4C2C353035362E32373334302C4E2CD4
:1014B00030303132332E38383030302C572C3130F8
:1014C000343530332E30302C412C412A00000000BE
:1014D000140200200CB500202749019000900A68F2
:1014E00042F480320A604FF4A0630A6802F40032CA
:1014F0000092019A521C0192009A12B9019A9A42E2
:10150000F3D10A68920334D5012000901A48403084
:10151000026842F0805202601848026842F4804239
:1015200002601548083002680260026842F4004216
:101530000260026842F4A0520260031F104A1A605F
:101540000A6842F080720A600A689201FCD50D4A6E
:1015500040F205611160016821F00301016001683A
:1015600041F0020101600168C1F381010229FAD151
:101570000CBD00900CBD000000380240007000401F
:1015800019544007003C0240704700000F4810B556
:10159000016841F0010101600C4A0021083211602C
:1015A00002680B4B1A400260031D0A4A1A60026867
:1015B00022F48022026005480C300160FFF78AFFA8
:1015C00005494FF00060086010BD0000003802407F
:1015D000FFFFF6FE1030002408ED00E07FB501218A
:1015E0008C07204600F07FF800283ED001212046DD
:1015F00000F06CF81DA000F0FBF8FFF707FE18B133
:10160000BDE87F40FFF748BD1CA21D21234800F024
:10161000B5FBFFF7E7FC224E3068052810D2FFF734
:10162000B5FD04460D46FFF7ABFD8DE833001DA266
:101630001D211A4800F0A2FB3068401C30600DE00C
:10164000FFF7A4FD0C460546FFF79AFD03948DE8CD
:10165000230019A21D21114800F090FB04B00F498E
:10166000BDE87040184800F077BB7FBD0D0A546993
:101670006D6572207469636B210D0A0020202020A3
:10168000202020202020202020202020202020205A
:101690002020202020202020202020005C07002067
:1016A00024000020504F53547925303131662325D2
:1016B0003031316600000000504F53542530313135
:1016C000662325303132660000140140C94301828F
:1016D00070470029018802D041F0010101E021F0AA
:1016E00001010180704702460020138A92890B4253
:1016F00002EA010202D0002A00D001207047002A2D
:10170000828901D00A4300E08A4382817047000049
:1017100030B50288164B174C98420DD0A0420BD022
:10172000B0F1804F08D0144DA84205D0134DA84207
:1017300002D0134DA84203D122F070054A882A43F3
:10174000104DA84206D0104DA84203D022F4407597
:101750000A892A4302804A68C2620A88028598423E
:1017600001D0A04201D1897A01860121818230BD58
:101770000000014000040140000400400008004057
:10178000000C0040001000400014004038B51C2040
:101790008DF8000000248DF8014001208DF8020032
:1017A0008DF803006846FFF7FFFC01210846FFF7AC
:1017B000EDFD0D4841F287314FF0804541604AF21E
:1017C0000F4101800481448001462846FFF7A0FFB5
:1017D000012211462846FFF792FF01212846FFF714
:1017E00078FF0248046038BD500700202400002024
:1017F0002DE9F04705460078002458B11D4E308889
:101800004006FCD5DFF870804FF020591B4F98F848
:10181000000007E04FF0FF30BDE8F087494638464A
:10182000FFF73EFB0028F9D08021304600F096F803
:101830000028F9D0124840F28F120026297841B1D1
:101840000155641C6D1CA4B29442F7D10655641C6A
:10185000A4B20A48001D04600A484946046138469B
:10186000FFF756FA01213846FFF77EFA88F8006044
:101870000020D1E70010014020000020B8640240A1
:10188000640200201407002070B5084C40F2255572
:101890002946204600F069F8002806D0A188204695
:1018A0002946BDE8704000F041B870BD001001400D
:1018B00070B51B4E40F225542146304600F055F8D5
:1018C000002824D0301D00882146C5B2304600F0E3
:1018D0002DF8154C00261349A0782A2D08D0502841
:1018E00003D210B1042815D016E0242D10D00DE03D
:1018F00060B14F280AD20D54401CC2B2A2708E545F
:101900000849521C01F5C870FEF75AFCA67070BD5C
:1019100010B1FBE74C2DF9D10D54401CA07070BDE7
:101920000048004084000020200000200A0A012115
:101930009140C943018070470029818902D041F458
:10194000005101E021F4005181817047002A828A10
:1019500001D00A4300E08A43828270470246002099
:1019600012880A4200D00120704730B501F01F02F2
:1019700001240025C1F3421304FA02F2012B0FD017
:10198000022B0FD0838A4FEA11210088134204FAF8
:1019900001F400EA040001D000B10125284630BD61
:1019A0008389F0E7038AEEE710B5C1F3421301F033
:1019B0001F040121A140012B07D0022B07D01430B6
:1019C000002A026805D00A4304E00C30F8E7103022
:1019D000F6E78A43026010BD7FB50446008A0D46D3
:1019E00020F44051E88808432082A08941F20C612C
:1019F0008843A9882A8911436A8902431143A18136
:101A0000A08A20F44071A8890843A0826846FFF7A5
:101A1000D5FC1D48844202D01C48844201D1039861
:101A200000E00298A1890904002900EBC00101EB44
:101A30000010296802DA4FEA410101E04FEA810112
:101A4000B0FBF1F26420B2FBF0F14FEA01114FEA72
:101A500011136FF018056B4302EB8302A3891D0479
:101A60004FF0320306D503EBC202B2FBF0F000F0F8
:101A7000070005E003EB0212B2FBF0F000F00F00EC
:101A8000084320817FBD0000001001400014014088
:101A9000C1F30801818070472DE9F34F0746A34841
:101AA000DFF88C820024012687B04FF480054FF0C8
:101AB000400940F28F1A4FF4806B874250D10121C8
:101AC0001020FFF76FFC01210846FFF753FC0121AE
:101AD0002846FFF74FFC4FF4C06000902520954D3D
:101AE0008DF81800072209212846FFF7DDFA0722A2
:101AF0000A212846FFF7D8FA8F48FFF73FF94046FA
:101B0000FFF756FAA902C8F8001008F10802A8F574
:101B10009661A2E80206391D4046C8F80410C0E9E3
:101B2000054BC8F81C40C8F82040C8F82440C8F845
:101B30002840C0E90B46C8F8344041467E48C8F802
:101B40003840FFF70BFA012280213846FFF7FEFEEE
:101B5000012210217848FFF7E7F901217648A8E033
:101B6000764887424FD101218804FFF70FFC0121FD
:101B70000220FFF7FFFB01214805FFF7FBFB4FF4B5
:101B80004060009027206E4D8DF8180007220A2132
:101B90002846FFF789FA07220B212846FFF784FA27
:101BA0006848FFF7EBF86248FFF702FA6904C8F8E3
:101BB0000010654908F108024046A2E80206391DF6
:101BC000C8F80410C0E9054BC8F81C40C8F820400C
:101BD000C8F82440C8F82840C0E90B46C8F834408B
:101BE00053495848C8F83840FFF7B8F90122802116
:101BF0003846FFF7ABFE012210215248FFF794F957
:101C00000121504855E0514887427DD101212020D3
:101C1000FFF7C8FB01210420FFF7ACFB0121284698
:101C2000FFF7A8FBC02000904720494D8DF8180011
:101C3000082206212846FFF737FA082207212846FE
:101C4000FFF732FA3C481838FFF798F83848FFF7A2
:101C5000AFF94FF02061C8F800103E4908F10802C2
:101C60004046A2E80206391DC8F80410C0E9054B39
:101C7000C8F81C40C8F82040C8F82440C8F82840DC
:101C8000C0E90B462C48C8F8344029491838C8F830
:101C90003840FFF763F9012280213846FFF756FEEE
:101CA0002548012210211838FFF73EF9224801216A
:101CB0001838FFF759F802208DF804008DF8064017
:101CC0008DF805008DF8076069462846FFF792F900
:101CD00008980290ADF810400C20ADF80C40ADF81B
:101CE0001200ADF80E40ADF8144002A93846FFF7D7
:101CF00073FE012240F225513846FFF755FE8DF85C
:101D000019408DF81A4000E00CE08DF81B6006A821
:101D1000FFF74AFA01213846FFF70EFE002009B00E
:101D2000BDE8F08F4FF0FF30F9E7000000100140F0
:101D30001407002000000240B86402400048004040
:101D40000004024058600240F403002000140140E7
:101D5000000802408405002070B50C46054608E0E6
:101D600028884006FCD521782846FFF791FE14F814
:101D7000010B20780028F3D170BDFEE70FB41CB52D
:101D80000A46521ECDE9000207A9054B6A4606988D
:101D900000F0CEF8009A002111701CBC5DF814FB15
:101DA0007726000802E008C8121F08C1002AFAD1ED
:101DB00070477047002001E001C1121F002AFBD1CB
:101DC000704700002DE9FF5FDDE90220010DDDF81D
:101DD00038B0024310D10F9801244CA2012808D03A
:101DE000002100980F9BC0E90021C0E90243BDE833
:101DF000FF9F6FEA0B01F4E7A1F2FF3144F61050A8
:101E000041430D140F9801280ED0A5EB0B00401C88
:101E10004FF000043E4EDFF8FC90B0F1000AA046FF
:101E200005DACAF1000717E0CBF10000F0E707463A
:101E300012E0F80707D02246334640464946FEF7EF
:101E400046FC804689462246334610461946FEF730
:101E50003EFC04460E467F10002FEAD1DDE9020168
:101E6000BAF1000F42464B4602DAFEF730FC01E0C1
:101E7000FEF7A8FA04460E460022274BFEF7B2FCF6
:101E800003D84FF0FF30014607E00022234B2046E5
:101E90003146FEF7F0F9FEF78CFC102409E0002C27
:101EA0000ADB0A220023FEF712FB019B30321A558F
:101EB000641E50EA0102F2D1641C019AC4F11103BC
:101EC00014440F9A012A09D00122084301D15B452D
:101ED0000FDD4FF0000205F101050DE0084303D1CD
:101EE000A3EB0B056D1E09E000204FF0110B0F90C6
:101EF00088E701DA00226D1E002A83D000980F992E
:101F0000C0E90231C0E9004571E70000300000007F
:101F1000000024400000F03F0000F0430000E03FDC
:101F200030380A2801D20120704700207047000095
:101F30002DE9FF4F95B09B4689460646002512E2E3
:101F4000252878D10024761CF94A274601210594DA
:101F50003378203B01FA03F0104202D00443761C90
:101F6000F6E730782A2811D06FF02F033078A0F1EF
:101F70003002092A16D8059A44F0020402EB8202C4
:101F800003EB42021044761C0590EFE759F8042B4E
:101F90000592002A03DA504244F40054059044F0BC
:101FA0000204761C30782E2816D116F8010F44F062
:101FB00004042A280DD06FF02F023078A0F13003EE
:101FC000092B09D807EB870302EB4303C718761CDC
:101FD000F3E759F8047B761C30786C280FD006DCC8
:101FE0004C2817D068280DD06A2814D104E0742832
:101FF00010D07A280FD10DE044F400140AE044F424
:10200000801401E044F440147278824202D1761CBC
:1020100004F58014761C307866280BD013DC582821
:1020200077D009DC002875D04528F6D04628F4D0B2
:1020300047281AD19FE118E0632835D0642879D069
:10204000652812D197E1702873D008DC6728F1D099
:1020500069286FD06E280DD06F2806D1B5E073289F
:102060002CD0752875D0782874D05A461799904787
:102070006D1C76E1C4F30250022809D003280DD06C
:10208000D9F8001004280DD00D6009F1040968E1A9
:10209000D9F80010EA17C1E90052F6E7D9F80010A4
:1020A0000D80F2E70D70F0E719F8041B8DF80010B1
:1020B00000208DF80100EA46012003E059F804AB46
:1020C0004FF0FF3061074FF0000102D40DE008F13E
:1020D00001018846B9420FDA8045F8DB1AF808108A
:1020E0000029F4D108E008F1010188468142FADBB9
:1020F0001AF808100029F6D105985B46A0EB0807EE
:1021000021463846179A00F09EFA284400EB08054D
:1021100007E04DE02BE10DE01AF8010B5A46179944
:102120009047B8F10108F7D25B4621463846179A26
:1021300014E142E00A220092C4F302524FF0000A76
:10214000022A08D059F804CB032A4FEAEC710AD0CE
:102150000DE029E02AE009F1070121F00702F2E889
:1021600002C1914609E00FFA8CFC4FEAEC71042A97
:1021700003D14FFA8CFC4FEAEC71002907DA0A46CA
:102180000021DCF1000C61EB02012D2202E02205AE
:1021900004D52B228DF80420012203E0E20701D0B0
:1021A0002022F7E7904653E00A2102E010220DE0DA
:1021B00010214FF0000A00910BE010224FF0000AAE
:1021C00044F004040827009203E008224FF0000ABC
:1021D0000092C4F30252022A05D059F804CB002120
:1021E000032A08D009E009F1070121F00702F2E80B
:1021F00002C1914605E01FFA8CFC042A01D10CF0C3
:10220000FF0C4FF00008220722D5702827D0009B32
:1022100083F0100353EA0A0309D15CEA010206D0F5
:1022200030228DF804208DF8050002229046009B94
:1022300083F0080353EA0A030AD15CEA010201D1E0
:10224000620705D530228DF804204FF001087F1E6B
:10225000582809D037A003900EA8029013E040221E
:102260008DF804200122E1E737A0F4E753466046E9
:10227000009AFEF72CF984460398825C0298A0F13C
:102280000100029002705CEA0100EFD1029806A9F9
:10229000A1EB000000F1200A600702D524F480348D
:1022A00000E00127574502DDA7EB0A0000E000200F
:1022B00000EB0A01009005984144A0EB0100059055
:1022C000E00306D45B462146179A059800F0BBF957
:1022D0000544002706E001A85A46C05D17999047BB
:1022E0006D1C7F1C4745F6DBE0030CD55B462146A1
:1022F000179A059800F0A7F9054404E030205A46E3
:10230000179990476D1C0099481E00900029F5DC34
:1023100008E0029802995A460078491C02911799E0
:1023200090476D1CBAF10001AAF1010AF1DC6BE1E2
:10233000092801003031323334353637383961629B
:10234000636465660000000030313233343536375F
:1023500038394142434445460000000000F060F92E
:10236000054406F10106307800287FF4E9AD19B084
:102370002846BDE8F08F620700D4062709F107025E
:1023800022F0070CFCE80223E14603F000485FEA74
:10239000080C02D00FF27C2C0DE05FEA045C02D541
:1023A0000FF2742C07E05FEAC47C02D00FF26C2CB1
:1023B00001E0AFF2700C4FF0FF3823F00043CDF88E
:1023C00050C065280CD006DC452809D046281DD011
:1023D00047283ED13EE0662818D0672839D139E039
:1023E0000021112F01DB112000E0781CCDE9000154
:1023F00006A90EA8FFF7E6FCDDE90F010E9A03918E
:102400000021009207F1010A04914EE04FF00040D4
:102410000097CDE9011006A90EA8FFF7D3FCDDE96E
:102420000F0203920E9B11990022DDF80CA000937D
:10243000049219B907F1010100EB010AB7EB0A0098
:1024400004D4C0F1FF3007F1010A0490AAEB0700A1
:10245000019046E0012F00DA01270021112F01DD54
:10246000112000E03846CDE9000106A90EA8FFF7CB
:10247000A9FCDDE90F010E9A03910021049100925D
:10248000BA4621070CD40399514500DA8A46BAF1BD
:10249000010F05DD009AAAF10101515C302908D035
:1024A000B84202DA10F1040F06DA0121CDE9011079
:1024B00017E0AAF10101E9E7002805DC04990144CD
:1024C0000491AAEB000102E0411C514500DD8A465F
:1024D0000499A0EB010000F1010001904FF00040D1
:1024E0000290200704D40198504501DBCDF8048008
:1024F00000208DF84F0002980DF14F07B0F1004F0A
:1025000025D02B200E9002984FF0020800280CDAFC
:10251000404202902D200E9007E00A210298FDF71C
:10252000C0FF3031029007F8011DB8F10001A8F199
:102530000108F2DC02980028EFD1791E0E9808708D
:10254000307800F0200040F0450007F8020D12A896
:10255000A0EB070000F107081498007800B10120F3
:1025600000EB0A01019801EBE07105984144A0EBF2
:102570000100A0F101000590E00306D45B4621466E
:10258000179A059800F05FF805441498007820B178
:102590005A461799904705F10105E00323D55B469C
:1025A0002146179A059800F04EF805441BE0049860
:1025B000002807DBDDE90301884203DD0098405C69
:1025C000179901E0179930205A46904704986D1CDE
:1025D000401C04900198401E019004D12E205A46C0
:1025E000179990476D1CBAF10001AAF1010ADEDCCF
:1025F00005E017F8010B5A46179990476D1CB8F182
:102600000001A8F10108F4DC5B462146179A059801
:10261000A4E600002D0000002B00000020000000B8
:102620002DE9F041044600251E461746880405D4CE
:1026300006E039462020B04705F10105641EF8D5B3
:102640002846BDE8F0812DE9F041044600251E46EC
:102650009046C80301D5302700E02027880405D51F
:1026600006E041463846B04705F10105641EF8D53D
:102670002846BDE8F0814A68002A06D00A68531C43
:102680000B6010704868401E4860704710B5FEF738
:10269000E1FE10B14FF0FF3010BD08A0FFF7A8F821
:1026A000FEF74AFDFFF772F8FEF710FD074C2046D3
:1026B000FEF790FCFEF728FDF9E7000048656C6C1A
:1026C0006F20576F726C64210D0A000080841E0019
:1026D00000B583B00A460021CDE9001101466846E5
:1026E000FDF763FFDDE9000103B000BDDDDDDDDDE9
:1026F000DCBBBBDDDDDDDDDDDDDDDDDD9888888893
:102700008888888877777777778888888555555639
:102710006666666666666666666888888333333290
:1027200022222222222222222228888D4C270008BF
:102730000000002034000000A41D000880270008CD
:10274000340000204C0B0000B41D00080000000005
:102750000102030401020304060708090000000047
:102760000000000000000000000000000101000067
:102770000000000000000000000000000000000059
:040000050800018965
:00000001FF
