:020000040800F2
:10000000D80B00209D0100084D1000084110000889
:1000100043100008D50B0008E31B00080000000097
:10002000000000000000000000000000F5120008C1
:10003000EB0E000800000000151200082D14000847
:10004000B7010008B7010008B7010008B7010008B0
:10005000B7010008B7010008B7010008B7010008A0
:10006000B7010008B7010008B7010008B701000890
:10007000B7010008B7010008B7010008B701000880
:10008000B7010008B7010008B7010008B701000870
:10009000B7010008B7010008B7010008B701000860
:1000A000B7010008B7010008B7010008B701000850
:1000B00081140008B7010008B7010008B701000863
:1000C000B7010008B7010008B7010008B701000830
:1000D000B7010008E1160008B7010008151700086D
:1000E000B7010008B7010008B7010008B701000810
:1000F000B7010008B7010008B7010008B701000800
:10010000B7010008B7010008B7010008B7010008EF
:10011000B7010008B7010008B7010008B7010008DF
:10012000B7010008B7010008B7010008B7010008CF
:10013000B7010008B7010008B7010008B7010008BF
:10014000B7010008B7010008B7010008B7010008AF
:10015000B7010008D90B0008010C0008B70100081E
:10016000B7010008B7010008B7010008B70100088F
:10017000B7010008B7010008B7010008B70100087F
:10018000B7010008B7010008DFF80CD000F0CAFA88
:1001900000480047211D0008D80B00200648804772
:1001A00006480047FEE7FEE7FEE7FEE7FEE7FEE75C
:1001B000FEE7FEE7FEE7FEE73114000889010008CC
:1001C00040EA01039B0703D009E008C9121F08C0D9
:1001D000042AFAD203E011F8013B00F8013B521E59
:1001E000F9D2704710B5044604E00B7800F8013BE3
:1001F00003B1491C521EF8D2204610BD034611F827
:10020000012B00F8012B002AF9D118467047000095
:1002100070B50F4D00B92868002412E00A4602E0CC
:100220009E4203D0521C1378002BF9D1DAB222433C
:1002300005D02BB124B1002100F8011B04E00446D5
:10024000401C0678002EE9D12860204670BD0000D1
:100250002800002030B50546002008E00A4602E0EC
:10026000A34207D0521C1378002BF9D1401C2C5C00
:10027000002CF3D130BD2DE9FE4F804681EA03000A
:10028000C00F0C46009021F0004123F00045B8EB70
:100290000200A94105D24046214690461C460B4625
:1002A000024623F00040104304D14046214603B0EB
:1002B000BDE8F08F270DC7F30A00C3F30A5102907F
:1002C000401A0190402866DAC3F3130040F4801B03
:1002D0000098924620B10023D2EB030A63EB0B0B8C
:1002E00001985946C0F14002504600F0DAF806463F
:1002F0000D4650465946019A00F0E2F810EB08000E
:100300006141002487EA115284EAE7731A433BD023
:10031000009A3AB3019A012A4FEA075210DC001BF7
:1003200061EB02014FF0004202EA0752CDE90042C0
:10033000001C41F5801132462B4600F02EF9B6E73D
:10034000001B61EB0201001C41F5801300185B41AA
:100350002018A2F5001747EB030140EAD570B61943
:100360006D4111E06D084FEA360645EAC0754FEA67
:100370000752001B61EB0201001C41F58011490886
:100380004FEA30000019514132462B4603B0BDE818
:10039000F04F00F0F5B80098012240000023D0EBA8
:1003A000020263EBE073009821464FEAE074B8EB79
:1003B000000061EB0401E9E783F000435BE781F0B3
:1003C000004158E72DE9F04D81EA030404F0004BA9
:1003D00021F0004514464FF0000A23F0004150EA96
:1003E000050220D054EA01021DD0C5F30A57024687
:1003F000C5F31303C1F31300C1F30A5640F480158B
:1004000043F48013A7EB0608101BD64608F2FD380C
:1004100073EB050002D308F1010801E092185B417B
:10042000B8F1000F03DA00200146BDE8F08D00208E
:100430004FF48011064684460EE0171B73EB050748
:1004400005D3121B63EB050306434CEA010C490874
:100450004FEA300092185B4150EA0107EDD152EAB1
:10046000030012D082EA040083EA0501084303D1A5
:1004700000224FF0004308E0101BAB4102D20122E2
:10048000002302E06FF0010253101AEB06004CEB60
:10049000085110EB0A0041EB0B01BDE8F04D00F0F4
:1004A0006FB8202A04DB203A00FA02F100207047DE
:1004B0009140C2F1200320FA03F3194390407047A2
:1004C000202A06DBCB17203A41FA02F043EAE07318
:1004D00006E041FA02F3D040C2F120029140084305
:1004E000194670470FB4002300B589B00CA90091DC
:1004F0000B996FF00042CB601E4B06931E4B079387
:100500000423CDE901321D4A089202466B460020C1
:1005100000F0B0F909B05DF814FB70B586B006467E
:100520004FF0FF300091CDE90101002015460C4647
:1005300004903246694604A8FFF7D4FF03460498A6
:10054000211825B108B10A4600E022462A60002899
:100550000DD0002B02DD0098884208D0081B0094C3
:10056000CDE901043246694604A8FFF7BBFF06B097
:1005700070BD0000B10A0008CF0A00086907000832
:1005800010B5002B08DA401C41F1000192185B41C4
:100590001A4301D120F0010010BD2DE9F04D924623
:1005A0009B4611B1B1FA81F202E0B0FA80F220323A
:1005B0009046FFF776FF04460F4640EA0A0041EAFC
:1005C0000B0153465A46084303D120463946BDE83D
:1005D000F08D114653EA010015D0C8F14002504693
:1005E00000F0B2F805460E46504659464246FFF71F
:1005F00058FF084301D0012000E00020054346EAEF
:10060000E0762C4337430A984FEA4453A0EB0800A6
:100610004FEAD4240A304FF0000244EA47544FEA2C
:10062000D72502D500200146D1E7010510196941FF
:10063000DDE9084500196941BDE8F04DA0E72DE965
:10064000FE4F81EA030404F0004421F000410094CD
:100650004FF0000B23F0004350EA010402D052EAAD
:10066000030404D10020014603B0BDE8F08FC3F3BA
:100670000A54C1F30A552C44A4F2F3340194A0FBAC
:100680000254C1F3130141F48011C3F3130343F483
:10069000801301FB024400FB034E840A970A44EADC
:1006A000815447EA8357A4FB076802958D0A05FB2E
:1006B00007854FEA932C04FB0C542705029D4FEA53
:1006C000065847EA1637B5EB08056EEB070C870EA0
:1006D000920E47EA811742EA8312A7FB0201B6EBAA
:1006E0000B0164EB00042B0D43EA0C335E1844EB62
:1006F0001C50DA465146E7FB0201C5F313044FEAEA
:100700000B3343EA14534FEA0432019C43EA0603D5
:10071000A4F10C040294009CCDE900B4FFF73DFF66
:10072000A2E70000064C074D06E0E06840F0010338
:1007300094E8070098471034AC42F6D3FFF728FD41
:10074000041E0008241E0008202A04DB203A21FA97
:1007500002F00021704721FA02F3D040C2F12002DA
:100760009140084319467047C0B24FF4F05100F071
:10077000BFB900002DE9FF4F087881B09946FF28E6
:1007800005D0491C2D2804D00024002308E00023B4
:100790000BE00124F9E703EB830300EB4303491C5F
:1007A0000878FF28F7D104B15B420020009014784C
:1007B00001462D2C01D02B2C04D1521C2D2C12D0F3
:1007C0000024009400251678FF2E0ED00A24A0FBEA
:1007D00004C801FB0481002700FB0711521C16EB23
:1007E0000C006941EFE70124EBE7994450EA01026C
:1007F00006D101980021C0E9001105B0BDE8F08FD5
:100800000024A84D2646DFF8A08200F085F9824634
:100810008B46B9F1000002DAC9F1000714E007467F
:1008200012E0F80707D022462B4630464146FFF734
:1008300006FF0646884622462B4610461946FFF715
:10084000FEFE04460D467F10002FEAD1B9F1000FDD
:10085000324643465046594602DAFFF7B3FD01E0FF
:10086000FFF7EDFE009A0AB181F00041019AC2E95A
:100870000001C2E72DE9FF4F1F468DB0D7E90146C1
:100880004FF0FF382E2045464FF000090B90B96914
:100890006D1C0E988847396A824688470028F6D131
:1008A0001AF101000AD024F4D064002E12DDBAF14E
:1008B0002B0F08D0BAF12D0F0CD102E0404611B039
:1008C0009CE744F48064B9696D1C0E9888478246A1
:1008D000A6F101066946600501D52D2000E02B2018
:1008E0008DF8000001F1010B0DF1200809E0B96954
:1008F0006D1C0E98884782460F98761E44F400744B
:100900000560002E02DDBAF1300FF0D00B998A4558
:100910003ED144F0800406E00F99681CA9F101095A
:1009200044F400740860761EB9696D1C0E988847FF
:1009300082463028F0D02BE00B998A4505D120065D
:1009400003D444F08004761E18E0504601F06DF99F
:1009500008B3761E0DF1130144F400748B4508D2E0
:10096000AAF130000BF8010B200607D5A9F1010010
:1009700003E0200602D409F101008146A00502D55A
:100980000F99681C0860B9696D1C0E9888478246EB
:10099000002ED1DC54E0002E52DDBAF1650F02D0FA
:1009A000BAF1450F4CD1A0054AD5761EB96924F499
:1009B00040746D1C0E9888478246002E0DDD2B2852
:1009C00004D0BAF12D0F08D144F48074B9696D1CBC
:1009D0000E9888478246A6F10106E00501D52D2133
:1009E00000E02B2108F8011BCDF82C8021E0761EB9
:1009F0000DF1290144F4007488450CD2AAF13000AD
:100A000010F0FF0088F8000002D10B99884509D941
:100A100008F1010806E0E00501D5244801E042F2B2
:100A20000F708146B9696D1C0E98884782460F98F1
:100A30000560002E04DD504601F0F7F80028D6D1FD
:100A4000F9690E988847FF208BF8000088F80000AD
:100A50000020069007904B466A4608A906A8FFF7B3
:100A600089FEA00502D46FF0010028E714F0240FDE
:100A70000AD0E00714D1DDE906123868031D3B6097
:100A80000068C0E900120BE0DDE9060100F050F853
:100A90000146E00704D13868021D3A600068016031
:100AA00028460CE7000024400000F03FF1D8FFFF8B
:100AB000426842B1016811F8013B23B1521EC0E9FE
:100AC0000012184670470121C160881E70474268B5
:100AD0005AB1C368016843B983688B4205D0491E87
:100AE000521CC0E90012002070474FF0FF307047E1
:100AF0007F2801D9002208E0064A02EB5002C00715
:100B0000127800D1120902F00F0201209040084033
:100B100070470000C41D00080EB540F23342029237
:100B20000022CDE900221346FFF737FD03B000BDD8
:100B300001F0004330B421F0004150EA010206D038
:100B40000A0DA2F56072C1F31301002A02DC30BC69
:100B500000207047440F44EAC104C100E01830BCD3
:100B600000EBC250AFF300800029A8BF7047401CC3
:100B7000490008BF20F00100704710B4B0FA80FCB3
:100B800000FA0CF050EA010404BF10BC704749B1F0
:100B9000CCF1200421FA04F411FA0CF118BF012160
:100BA00021430843A3EB0C01CB1D0106000A002BD7
:100BB000BEBF002010BC704700EBC350104400299A
:100BC000A4BF10BC7047401C490008BF20F00100C2
:100BD00010BC7047FEE7000070B5074C074D21467A
:100BE000284600F003F9002805D021462846BDE834
:100BF000704000F02FB870BD00802020A06402403B
:100C000070B5074C074D2146284600F0EFF8002844
:100C100005D021462846BDE8704000F01BB870BDE5
:100C200000800028B8640240074A904201D2074879
:100C300001E005481038064A8B0001EA020101D59F
:100C4000C1607047816070471064024000600240DC
:100C50007D0F7D0F074A904201D2074801E0054809
:100C60001038064A8B0001EA020101D5C1607047C5
:100C70008160704710640240006002407D0F7D0F6C
:100C80000029016802D041F0010101E021F00101D9
:100C9000016070472DE9F043016821F00101016016
:100CA0000021016041608160C160016121214161D9
:100CB0003C493C4A3D251039904202D18D60BDE847
:100CC000F083384A4FF474661832904201D18E6036
:100CD000F5E7344A4FF474173032904201D18F60F7
:100CE000EDE7304A4FF0746C4832904202D1C1F8BF
:100CF00008C0E4E72B4B2C4A6033984201D1CA600C
:100D0000DDE7284C294B7834A04201D1CB60D6E7EF
:100D1000DFF89080264C08F19008404501D1CC6066
:100D2000CDE7DFF880804FF03D5908F1A808404535
:100D300002D1C1F80C90C2E71E49DFF8788008396B
:100D4000404501D10D60BAE71A4D1835A84201D1CE
:100D50000E60B4E7174D3035A84201D10F60AEE701
:100D6000144D4835A84202D1C1F800C0A7E7114D83
:100D700010496035091FA84201D10A609FE70D4A5A
:100D80007832904201D10B6099E70A4A9032904242
:100D900001D10C6093E7074AA83290428FD1C1F885
:100DA00000908CE7106002403D000020400F0020C2
:100DB00000003D20106402400246094B00209A4288
:100DC00001D2084A01E0064A103A8B0001D5526868
:100DD00000E01268044B1A400A4200D0012070471C
:100DE00010640240006002407D0F7D0F30B5104A54
:100DF0000024904201D20F4B01E00D4B103B0E4AF4
:100E0000114205D01E2202EAD12502682A4002E0E2
:100E1000406900F08002880001D5586800E0186839
:100E2000064B1840084201D002B10124204630BDD3
:100E300010640240006002403C0F3C0F7D0F7D0FAC
:100E400010B50C0601F01E0304D54AB1446944F004
:100E50008004446180290CD042B10168194307E045
:100E6000426922F080024261802902D001689943E0
:100E7000016010BD30B50368124ACC6813400A689F
:100E80002243D1E905452C432243CC6922430C6A15
:100E900022434C6A22438C6A22434C6B22438C6B64
:100EA00022431A430260426922F00703D1E90B246E
:100EB00022431A4342610A6942604A688260896833
:100EC000C16030BD3F801CF0002101604160816045
:100ED000C160016141618161C16101624162816200
:100EE000C1620163416381637047704701B5009837
:100EF000411E00910028FAD108BDF0B5002301245D
:100F000003270D6804FA03F21540954242D1D0F848
:100F100000C05E0007FA06F52CEA050CC0F800C018
:100F200091F804C0D0F800E00CFA06FC4CEA0E0C74
:100F3000C0F800C091F804C0BCF1010F02D0BCF1B0
:100F4000020F1FD1D0F808C02CEA050CC0F808C069
:100F500091F805C0D0F808E00CFA06FC4CEA0E0C3B
:100F6000C0F808C0D0F804C02CEA020CC0F804C0D5
:100F7000426891F806C00CFA03FC1FFA8CFC42EAA6
:100F80000C024260C268AA43C260CA79C568B24016
:100F90002A43C2605B1C102BB3D3F0BD4B07DB0EA2
:100FA0009A40C90810B500EB8100016A0F249C40EB
:100FB000A1430162016A1143016210BD4183704780
:100FC00010B54FF480410348FFF7F8FF02490020B5
:100FD000086010BD00080240240000200183704713
:100FE00010B54FF480410348FFF7F8FF0249012094
:100FF000086010BD00080240240000201CB50E4807
:10100000002401210460042000F006F94FF4804020
:10101000009001208DF8040002208DF805008DF865
:1010200006408DF8074069460448FFF766FF012136
:10103000042000F0F1F81CBD24000020000802404C
:10104000FEE7FEE7004870470C02002070470000F2
:1010500070B50F21C478027801234FF0E026E4B187
:10106000124C246804F4E064C4F5E064C4F307247B
:10107000C4F10405E1404478AC4085780D40254337
:101080000B4C29011155007800F01F018B404009DD
:1010900006EB8000C0F8003170BD02F01F008340F5
:1010A000500906EB8000C0F8803170BD0CED00E007
:1010B00000E400E02DE9F04F9DB0FFF7C3FF0146CB
:1010C00050224F48FFF77CF84D4A4FF0FF3011781F
:1010D000242928D15178472925D19178502922D126
:1010E000D17847291FD111794C291CD151794C292C
:1010F00019D1002443A1901DFFF78AF801466D46DF
:101100000CE000BF05EB0410641CE4B21022FFF7F2
:1011100069F83CA10020FFF77BF801460029F1D1D6
:10112000052C03D200201DB0BDE8F08F36A1684623
:10113000FFF790F804462819801E002100F034FEC5
:1011400006460F46A21E69461CA8FFF739F80DF1A6
:10115000700909EB04014FF0000801F8028C4146C8
:10116000484600F021FE294CC4E900019DF81020FA
:10117000532A04D181F0004187F000476160DFF815
:1011800090B000225B4630463946FFF71BF9D4E9A0
:101190000023FFF770F8C4E9000108A81AA18246ED
:1011A000FFF758F80746E8191E30002100F0FCFD53
:1011B00005460E46BA1E51461CA8FFF701F809EB7A
:1011C00007011CA801F8028C002100F0EDFDC4E924
:1011D00002019DF83020572A04D181F0004186F0A9
:1011E0000046E16000225B4628463146FFF7EAF8F8
:1011F000D4E90223FFF73FF8C4E9020192E70000B7
:101200002C0000202C2A00002E00000010000020DE
:1012100000004E4070470000044A0029116801D0C8
:10122000014300E081431160704700003038024004
:10123000044A0029116801D0014300E08143116094
:101240007047000040380240044A0029116801D06C
:10125000014300E0814311607047000044380240C0
:1012600070B5204A1168204C11F00C0104D01F4EBB
:10127000042903D0082903D004601BE0066019E0AC
:101280001849091F0B68C3F380550B6803F03F032F
:1012900015B1B6FBF3F301E0B4FBF3F30C68096896
:1012A000C4F388146343C1F30141491C4900B3FBF3
:1012B000F1F1016011680F2303EA11110C4B5C5C22
:1012C0000168E14041601468072505EA94241C5D2B
:1012D00021FA04F48460126805EA52329A5CD14023
:1012E000C16070BD083802400024F40040787D01E0
:1012F000000000207047000070B54FF4E1310D4848
:1013000000F0FEFA4FF0FF3458B94FF41655294655
:10131000094800F0F5FA20B92946084800F0F0FA2B
:1013200008B1204670BD06A11248FEF767FF0020F5
:1013300070BD000000100140001401400048004052
:10134000244750474C4C2C353035362E3237333409
:10135000302C4E2C30303132332E38383030302C67
:10136000572C3130343530332E30302C412C412A3B
:10137000000000000C0200200CB50020274901905D
:1013800000900A6842F480320A604FF4A0630A6851
:1013900002F400320092019A521C0192009A12B992
:1013A000019A9A42F3D10A68920334D50120009041
:1013B0001A484030026842F08052026018480268C1
:1013C00042F48042026015480830026802600268F8
:1013D00042F400420260026842F4A0520260031F1D
:1013E000104A1A600A6842F080720A600A68920124
:1013F000FCD50D4A40F205611160016821F003013E
:101400000160016841F0020101600168C1F38101DE
:101410000229FAD10CBD00900CBD0000003802403A
:101420000070004019544007003C02407047000023
:101430000F4810B5016841F0010101600C4A00211C
:101440000832116002680B4B1A400260031D0A4A01
:101450001A60026822F48022026005480C300160A4
:10146000FFF78AFF05494FF00060086010BD0000DB
:1014700000380240FFFFF6FE1030002408ED00E0C7
:1014800010B501218C07204600F05DF800281FD020
:101490000121204600F04AF80EA000F0D5F8174CC4
:1014A00010A1204600F08CFBFFF704FE14A120469B
:1014B00000F086FBFFF7C6FD034615A280211A48FF
:1014C00000F090FB2046BDE81040174900F078BBC3
:1014D00010BD00000D0A54696D6572207469636B5C
:1014E000210D0A000D0A54696D6572207469636BE1
:1014F00021205553415254360D0A0000001401407A
:101500004E4D4541205061727365640D0A00000024
:101510000D0A4E4D45412072656365697665643AF2
:101520002025730D0A00000054070020C9430182E2
:1015300070470029018802D041F0010101E021F04B
:1015400001010180704702460020138A92890B42F4
:1015500002EA010202D0002A00D001207047002ACE
:10156000828901D00A4300E08A43828170470000EB
:1015700030B50288164B174C98420DD0A0420BD0C4
:10158000B0F1804F08D0144DA84205D0134DA842A9
:1015900002D0134DA84203D122F070054A882A4395
:1015A000104DA84206D0104DA84203D022F4407539
:1015B0000A892A4302804A68C2620A8802859842E0
:1015C00001D0A04201D1897A01860121818230BDFA
:1015D00000000140000401400004004000080040F9
:1015E000000C0040001000400014004038B51C20E2
:1015F0008DF8000000248DF8014001208DF80200D4
:101600008DF803006846FFF723FD01210846FFF728
:101610000FFE0C4844F61F6141604AF20F41018001
:101620000481448001464FF080442046FFF7A0FF2C
:10163000012211462046FFF792FF01212046FFF7C5
:1016400078FF38BD480700202DE9F04705460078AF
:10165000002458B11D4E30884006FCD5DFF870805C
:101660004FF020591B4F98F8000007E04FF0FF3073
:10167000BDE8F08749463846FFF79EFB0028F9D0C1
:101680008021304600F09EF80028F9D0124840F240
:101690008F120026297841B10155641C6D1CA4B23B
:1016A0009442F7D10655641CA4B20A48001D046098
:1016B0000A48494604613846FFF7B6FA0121384620
:1016C000FFF7DEFA88F800600020D1E70010014043
:1016D00020000020B86402405C0200200C070020BB
:1016E00070B50B4C40F225563146204600F071F89B
:1016F00000280BD0A0883146C5B2204600F04AF839
:1017000029462046BDE8704000F0F6B870BD0000E4
:101710000010014070B51C4E40F225542146304661
:1017200000F057F8002826D0301D00882146C5B2A9
:10173000304600F02FF8FFF743FC154C0026134904
:10174000A0782A2D08D0502803D210B1042815D033
:1017500016E0242D10D00DE060B14F280AD20D54B0
:10176000401CC2B2A2708E540849521C01F5C870C8
:10177000FEF726FDA67070BD10B1FBE74C2DF9D128
:101780000D54401CA07070BD004800407C0000203B
:10179000200000200A0A01219140C94301807047BE
:1017A0000029818902D041F4005101E021F4005167
:1017B00081817047002A828A01D00A4300E08A436F
:1017C000828270470246002012880A4200D001201F
:1017D000704730B501F01F0201240025C1F3421308
:1017E00004FA02F2012B0FD0022B0FD0838A4FEAAA
:1017F00011210088134204FA01F400EA040001D028
:1018000000B10125284630BD8389F0E7038AEEE761
:1018100010B5C1F3421301F01F040121A140012BB7
:1018200007D0022B07D01430002A026805D00A43E3
:1018300004E00C30F8E71030F6E78A43026010BD90
:101840007FB50446008A0D4620F44051E8880843DD
:101850002082A08941F20C618843A9882A8911431A
:101860006A8902431143A181A08A20F44071A889AA
:101870000843A0826846FFF7F3FC1D48844202D06B
:101880001C48844201D1039800E00298A189090410
:10189000002900EBC00101EB0010296802DA4FEAD1
:1018A000410101E04FEA8101B0FBF1F26420B2FB9B
:1018B000F0F14FEA01114FEA11136FF018056B4375
:1018C00002EB8302A3891D044FF0320306D503EB1C
:1018D000C202B2FBF0F000F0070005E003EB0212D9
:1018E000B2FBF0F000F00F00084320817FBD000044
:1018F0000010014000140140C1F3080181807047CD
:101900002DE9F34F0746A348DFF88C820024012617
:1019100087B04FF480054FF0400940F28F1A4FF422
:10192000806B874250D101211020FFF78DFC0121EF
:101930000846FFF771FC01212846FFF76DFC4FF4C4
:10194000C06000902520954D8DF8180007220921D0
:101950002846FFF723FB07220A212846FFF71EFB34
:101960008F48FFF797F94046FFF7AEFAA902C8F88B
:10197000001008F10802A8F59661A2E80206391DD8
:101980004046C8F80410C0E9054BC8F81C40C8F828
:101990002040C8F82440C8F82840C0E90B46C8F8E1
:1019A000344041467E48C8F83840FFF763FA0122C8
:1019B00080213846FFF7FEFE012210217848FFF70C
:1019C0003FFA01217648A8E0764887424FD10121AD
:1019D0008804FFF72DFC01210220FFF71DFC0121E7
:1019E0004805FFF719FC4FF44060009027206E4D2A
:1019F0008DF8180007220A212846FFF7CFFA0722A0
:101A00000B212846FFF7CAFA6848FFF743F96248F6
:101A1000FFF75AFA6904C8F80010654908F108028E
:101A20004046A2E80206391DC8F80410C0E9054B7B
:101A3000C8F81C40C8F82040C8F82440C8F828401E
:101A4000C0E90B46C8F8344053495848C8F83840F4
:101A5000FFF710FA012280213846FFF7ABFE012282
:101A600010215248FFF7ECF90121504855E0514848
:101A700087427DD101212020FFF7E6FB01210420D0
:101A8000FFF7CAFB01212846FFF7C6FBC0200090E4
:101A90004720494D8DF81800082206212846FFF7F7
:101AA0007DFA082207212846FFF778FA3C481838C3
:101AB000FFF7F0F83848FFF707FA4FF02061C8F851
:101AC00000103E4908F108024046A2E80206391D0E
:101AD000C8F80410C0E9054BC8F81C40C8F82040FD
:101AE000C8F82440C8F82840C0E90B462C48C8F87C
:101AF000344029491838C8F83840FFF7BBF90122AB
:101B000080213846FFF756FE25480122102118385B
:101B1000FFF796F9224801211838FFF7B1F80220A3
:101B20008DF804008DF806408DF805008DF80760EB
:101B300069462846FFF7E1F908980290ADF8104091
:101B40000C20ADF80C40ADF81200ADF80E40ADF829
:101B5000144002A93846FFF773FE012240F22551D6
:101B60003846FFF755FE8DF819408DF81A4000E011
:101B70000CE08DF81B6006A8FFF76AFA01213846D1
:101B8000FFF70EFE002009B0BDE8F08F4FF0FF30E8
:101B9000F9E70000001001400C070020000002409F
:101BA000B86402400048004000040240586002400F
:101BB000EC03002000140140000802407C050020D6
:101BC00070B50C46054608E028884006FCD521780B
:101BD0002846FFF791FE14F8010B20780028F3D176
:101BE00070BDFEE70FB41CB50A46521ECDE90002D7
:101BF00007A9054B6A46069800F01EF8009A0021D6
:101C000011701CBC5DF814FB091D000802E008C837
:101C1000121F08C1002AFAD170477047002001E066
:101C200001C1121F002AFBD1704730380A2801D2A7
:101C300001207047002070472DE9F84F99469246E1
:101C400088460546002759E0252801D0514623E063
:101C5000002315F8011F18462E2915D115F8011F6C
:101C600004232A290DD06FF02F022978A1F1300426
:101C7000092C09D800EB800002EB400008446D1CE1
:101C8000F3E758F8040B6D1C2A7872B3632A08D066
:101C9000732A10D0514610464A46904707F1010773
:101CA0002BE018F8042B8DF8002000218DF801108E
:101CB0006E46012103E058F8046B4FF0FF315A07DC
:101CC0004FF0000401D409E0641C84420BDA8C421A
:101CD000FADB325D002AF7D105E0641C8C42FCDBA4
:101CE000305D0028F9D1274405E00AE016F8010B21
:101CF00051464A469047641EF8D26D1C2878002849
:101D0000A2D13846BDE8F88F4A68002A06D00A6892
:101D1000531C0B6010704868401E486070470000FC
:101D200070B5FFF7E9FA10B14FF0FF3070BD0BA0AE
:101D3000FFF78AFC0DA11748FFF742FFFFF75EF996
:101D4000FFF754FCFFF74CF9134C144D2046FFF7F6
:101D5000CDF813A12846FFF733FFF7E748656C6C11
:101D60006F20576F726C64210D0A000048656C6C1F
:101D70006F20576F726C642155534152545F7075D8
:101D80007473206F766572205553415254360D0A94
:101D9000000000000014014080841E000048004044
:101DA00041410D0A0000000000B583B00A46002141
:101DB000CDE9001101466846FEF7AFFBDDE9000101
:101DC00003B000BDDDDDDDDDDCBBBBDDDDDDDDDD8C
:101DD000DDDDDDDD98888888888888887777777763
:101DE000778888888555555666666666666666662F
:101DF00066688888833333322222222222222222DA
:101E00002228888D241E0008000000202C000000DD
:101E10000C1C0008501E00082C000020AC0B000019
:101E20001C1C00080000000001020304010203045E
:101E30000607080900000000000000000000000084
:101E40000000000001010000000000000000000090
:040000050800018965
:00000001FF
