:020000040800F2
:10000000600900209D0100089D060008990600086F
:100010009B0600081D0200080710000800000000F1
:10002000000000000000000000000000E5070008DC
:100030003305000800000000050700080D0900084E
:10004000B7010008B7010008B7010008B7010008B0
:10005000B7010008B7010008B7010008B7010008A0
:10006000B7010008B7010008B7010008B701000890
:10007000B7010008B7010008B7010008B701000880
:10008000B7010008B7010008B7010008B701000870
:10009000B7010008B7010008B7010008B701000860
:1000A000B7010008B7010008B7010008B701000850
:1000B00061090008B7010008B7010008B70100088E
:1000C000B7010008B7010008B7010008B701000830
:1000D000B7010008490B0008B7010008B701000884
:1000E000B7010008B7010008B7010008B701000810
:1000F000B7010008B7010008B7010008B701000800
:10010000B7010008B7010008B7010008B7010008EF
:10011000B7010008B7010008B7010008B7010008DF
:10012000B7010008B7010008B7010008B7010008CF
:10013000B7010008B7010008B7010008B7010008BF
:10014000B7010008B7010008B7010008B7010008AF
:10015000B70100082102000849020008B7010008A1
:10016000B7010008B7010008B7010008B70100088F
:10017000B7010008B7010008B7010008B70100087F
:10018000B7010008B7010008DFF80CD000F034F820
:1001900000480047291000086009002006488047F1
:1001A00006480047FEE7FEE7FEE7FEE7FEE7FEE75C
:1001B000FEE7FEE7FEE7FEE71109000889010008F7
:1001C00040EA01039B0703D009E008C9121F08C0D9
:1001D000042AFAD203E011F8013B00F8013B521E59
:1001E000F9D27047034611F8012B00F8012B002AC1
:1001F000F9D1184670470000064C074D06E0E0684C
:1002000040F0010394E8070098471034AC42F6D35D
:10021000FFF7BEFF98100008B8100008FEE70000C6
:1002200070B5074C074D2146284600F003F9002819
:1002300005D021462846BDE8704000F02FB870BDBB
:1002400000802020A064024070B5074C074D214675
:10025000284600F0EFF8002805D021462846BDE8E2
:10026000704000F01BB870BD00800028B8640240E8
:10027000074A904201D2074801E005481038064A73
:100280008B0001EA020101D5C160704781607047AF
:1002900010640240006002407D0F7D0F074A9042CB
:1002A00001D2074801E005481038064A8B0001EAF0
:1002B000020101D5C160704781607047106402403F
:1002C000006002407D0F7D0F0029016802D041F0DF
:1002D000010101E021F00101016070472DE9F043C7
:1002E000016821F00101016000210160416081602D
:1002F000C1600161212141613C493C4A3D251039E1
:10030000904202D18D60BDE8F083384A4FF47466A4
:100310001832904201D18E60F5E7344A4FF47417D9
:100320003032904201D18F60EDE7304A4FF0746C6B
:100330004832904202D1C1F808C0E4E72B4B2C4A66
:100340006033984201D1CA60DDE7284C294B7834EC
:10035000A04201D1CB60D6E7DFF89080264C08F1AF
:100360009008404501D1CC60CDE7DFF880804FF0A8
:100370003D5908F1A808404502D1C1F80C90C2E7E8
:100380001E49DFF878800839404501D10D60BAE791
:100390001A4D1835A84201D10E60B4E7174D30351B
:1003A000A84201D10F60AEE7144D4835A84202D1F2
:1003B000C1F800C0A7E7114D10496035091FA842D8
:1003C00001D10A609FE70D4A7832904201D10B605B
:1003D00099E70A4A9032904201D10C6093E7074AAC
:1003E000A83290428FD1C1F800908CE71060024093
:1003F0003D000020400F002000003D20106402401E
:100400000246094B00209A4201D2084A01E0064AFE
:10041000103A8B0001D5526800E01268044B1A4074
:100420000A4200D001207047106402400060024080
:100430007D0F7D0F30B5104A0024904201D20F4B42
:1004400001E00D4B103B0E4A114205D01E2202EA7C
:10045000D12502682A4002E0406900F0800288004D
:1004600001D5586800E01868064B1840084201D0D2
:1004700002B10124204630BD1064024000600240F9
:100480003C0F3C0F7D0F7D0F10B50C0601F01E03D5
:1004900004D54AB1446944F08004446180290CD0F9
:1004A00042B10168194307E0426922F080024261CB
:1004B000802902D001689943016010BD30B50368FE
:1004C000124ACC6813400A682243D1E905452C43FF
:1004D0002243CC6922430C6A22434C6A22438C6A31
:1004E00022434C6B22438C6B22431A4302604269C5
:1004F00022F00703D1E90B2422431A4342610A691F
:1005000042604A6882608968C16030BD3F801CF0EB
:100510000021016041608160C160016141618161D0
:10052000C161016241628162C162016341638163B1
:100530007047704701B50098411E00910028FAD11C
:1005400008BDF0B50023012403270D6804FA03F267
:100550001540954242D1D0F800C05E0007FA06F57A
:100560002CEA050CC0F800C091F804C0D0F800E0F7
:100570000CFA06FC4CEA0E0CC0F800C091F804C05E
:10058000BCF1010F02D0BCF1020F1FD1D0F808C09E
:100590002CEA050CC0F808C091F805C0D0F808E0B6
:1005A0000CFA06FC4CEA0E0CC0F808C0D0F804C0E7
:1005B0002CEA020CC0F804C0426891F806C00CFA9C
:1005C00003FC1FFA8CFC42EA0C024260C268AA4398
:1005D000C260CA79C568B2402A43C2605B1C102B56
:1005E000B3D3F0BD4B07DB0E9A40C90810B500EB42
:1005F0008100016A0F249C40A1430162016A1143FA
:10060000016210BD418370470183704710B54FF4FC
:1006100080410348FFF7F8FF02490120086010BD40
:10062000000802401400002010B5084C08484FF4A0
:100630008041226812B1FFF7E5FF01E0FFF7E4FF18
:100640002068C0F10100206010BD000014000020EF
:10065000000802401CB50E4800240121046004205B
:1006600000F052F84FF48040009001208DF8040013
:1006700002208DF805008DF806408DF80740694688
:100680000448FFF75EFF0121042000F03DF81CBD87
:100690001400002000080240FEE7FEE7704700005B
:1006A00070B50F21C478027801234FF0E026E4B141
:1006B000124C246804F4E064C4F5E064C4F3072435
:1006C000C4F10405E1404478AC4085780D402543F1
:1006D0000B4C29011155007800F01F018B40400997
:1006E00006EB8000C0F8003170BD02F01F008340AF
:1006F000500906EB8000C0F8803170BD0CED00E0C1
:1007000000E400E070470000044A0029116801D0AD
:10071000014300E08143116070470000303802401F
:10072000044A0029116801D0014300E081431160AF
:100730007047000040380240044A0029116801D087
:10074000014300E0814311607047000044380240DB
:1007500070B5204A1168204C11F00C0104D01F4ED6
:10076000042903D0082903D004601BE0066019E0C7
:100770001849091F0B68C3F380550B6803F03F034A
:1007800015B1B6FBF3F301E0B4FBF3F30C680968B1
:10079000C4F388146343C1F30141491C4900B3FB0E
:1007A000F1F1016011680F2303EA11110C4B5C5C3D
:1007B0000168E14041601468072505EA94241C5D46
:1007C00021FA04F48460126805EA52329A5CD1403E
:1007D000C16070BD083802400024F40040787D01FB
:1007E000000000207047000010B54FF4E1310A48C6
:1007F00000F0F0FA4FF0FF3428B94FF416510748D3
:1008000000F0E8FA08B1204610BD05A11148FFF735
:10081000E9FC002010BD0000001001400014014060
:10082000244750474C4C2C353035362E3237333434
:10083000302C4E2C30303132332E38383030302C92
:10084000572C3130343530332E30302C412C412A66
:1008500000000000A80100200CB5002027490190ED
:1008600000900A6842F480320A604FF4A0630A687C
:1008700002F400320092019A521C0192009A12B9BD
:10088000019A9A42F3D10A68920334D5012000906C
:100890001A484030026842F08052026018480268EC
:1008A00042F4804202601548083002680260026823
:1008B00042F400420260026842F4A0520260031F48
:1008C000104A1A600A6842F080720A600A6892014F
:1008D000FCD50D4A40F205611160016821F0030169
:1008E0000160016841F0020101600168C1F381010A
:1008F0000229FAD10CBD00900CBD00000038024066
:100900000070004019544007003C0240704700004E
:100910000F4810B5016841F0010101600C4A002147
:100920000832116002680B4B1A400260031D0A4A2C
:100930001A60026822F48022026005480C300160CF
:10094000FFF78AFF05494FF00060086010BD000006
:1009500000380240FFFFF6FE1030002408ED00E0F2
:1009600010B501218C07204600F021F8002808D09E
:100970000121204600F00EF8BDE8104001A000F073
:1009800097B810BD0D0A54696D6572207469636B68
:10099000210D0A00C943018270470029018802D055
:1009A00041F0010101E021F00101018070470246A0
:1009B0000020138A92890B4202EA010202D0002A27
:1009C00000D001207047002A828901D00A4300E04C
:1009D0008A4382817047000030B50288164B174C5D
:1009E00098420DD0A0420BD0B0F1804F08D0144DEA
:1009F000A84205D0134DA84202D0134DA84203D1FE
:100A000022F070054A882A43104DA84206D0104DA6
:100A1000A84203D022F440750A892A4302804A681A
:100A2000C2620A880285984201D0A04201D1897A27
:100A300001860121818230BD000001400004014097
:100A40000004004000080040000C0040001000407E
:100A50000014004038B51C208DF8000000248DF8EB
:100A6000014001208DF802008DF803006846FFF771
:100A700017FE01210846FFF753FE0C4844F61F619C
:100A800041604AF20F4101800481448001464FF0E9
:100A900080442046FFF7A0FF012211462046FFF7C1
:100AA00092FF01212046FFF778FF38BD5405002052
:100AB0002DE9F04705460078002458B11D4E3088D6
:100AC0004006FCD5DFF870804FF020591B4F98F896
:100AD000000007E04FF0FF30BDE8F0874946384698
:100AE000FFF78EFC0028F9D08021304600F0D4F8C2
:100AF0000028F9D0124840F28F120026297841B11F
:100B00000155641C6D1CA4B29442F7D10655641CB7
:100B1000A4B20A48001D04600A48494604613846E8
:100B2000FFF7A6FB01213846FFF7CEFB88F80060EF
:100B30000020D1E70010014010000020B8640240FE
:100B4000F80100201805002070B51B4C40F2255616
:100B50003146204600F0A7F8002823D0A18820467F
:100B6000CDB2314600F080F8154C00261349A0782C
:100B70002A2D08D0502803D210B1042815D016E031
:100B8000242D10D00DE060B14F280AD20D54401C26
:100B9000C2B2A2708E540949521C01F5C870FFF709
:100BA0000FFBA67070BD10B1FBE74C2DF9D10D54B1
:100BB000401CA07070BD0000001001401800002013
:100BC000100000202DE9F04705460078002458B1B8
:100BD0001E4E30884006FCD5DFF87480DFF8749034
:100BE0001D4F98F8010007E04FF0FF30BDE8F08797
:100BF00049463846FFF704FC0028F9D080213046EA
:100C000000F04AF80028F9D0144940F28F1200266B
:100C1000287848B10855641C6D1CA4B29442F7D1E1
:100C20000F480655641CA4B20B48001D04600D4813
:100C3000494604613846FFF71BFB01213846FFF7A0
:100C400043FB88F801600020D0E700000014014059
:100C50001000002000002020A0640240F8010020C5
:100C600088030020180500200A0A01219140C94389
:100C7000018070470029818902D041F4005101E0D0
:100C800021F4005181817047002A828A01D00A43F1
:100C900000E08A43828270470246002012880A429E
:100CA00000D00120704730B501F01F02012400255B
:100CB000C1F3421304FA02F2012B0FD0022B0FD022
:100CC000838A4FEA11210088134204FA01F400EAF2
:100CD000040001D000B10125284630BD8389F0E72A
:100CE000038AEEE710B5C1F3421301F01F0401219E
:100CF000A140012B07D0022B07D01430002A026834
:100D000005D00A4304E00C30F8E71030F6E78A43D8
:100D1000026010BD7FB50446008A0D4620F44051A4
:100D2000E88808432082A08941F20C618843A988A1
:100D30002A8911436A8902431143A181A08A20F4C0
:100D40004071A8890843A0826846FFF701FD1D484D
:100D5000844202D01C48844201D1039800E00298EA
:100D6000A1890904002900EBC00101EB00102968EA
:100D700002DA4FEA410101E04FEA8101B0FBF1F2F2
:100D80006420B2FBF0F14FEA01114FEA11136FF04A
:100D900018056B4302EB8302A3891D044FF0320355
:100DA00006D503EBC202B2FBF0F000F0070005E04D
:100DB00003EB0212B2FBF0F000F00F0008432081B9
:100DC0007FBD00000010014000140140C1F3080184
:100DD000818070472DE9F34FDFF8EC91DFF8EC816B
:100DE0000024012589B007464FF480064FF0400AE1
:100DF00040F28F1B484552D101211020FFF79CFC87
:100E000001210846FFF780FC01213046FFF77CFCFA
:100E10004FF4C060009025206D4E8DF81C00072215
:100E200009213046FFF7DEFB07220A213046FFF793
:100E3000D9FB6848FFF752FA4046FFF769FBE9061D
:100E4000C8F8001008F10802A8F54871A2E8020CE1
:100E500009F104014046C8F804100915C0E905412C
:100E6000C8F81C40C8F82040C8F82440C8F82840FA
:100E7000C0E90B45C8F8344041465648C8F83840E8
:100E8000FFF71CFB012280214846FFF7FDFE0122EF
:100E900010215048FFF7F8FA01214E4858E0DFF8DA
:100EA00038914F457DD101212020FFF745FC0121DC
:100EB0000420FFF729FC01213046FFF725FCC02064
:100EC00000904720454E8DF81C0008220621304630
:100ED000FFF788FB082207213046FFF783FB3D48D8
:100EE0001838FFF7FBF93948FFF712FB4FF0206184
:100EF000C8F800103A4908F108024046A2E8020C7E
:100F000009F10401C8F804100915C0E90541C8F841
:100F10001C40C8F82040C8F82440C8F82840C0E960
:100F20000B452C48C8F8344028491838C8F83840D0
:100F3000FFF7C4FA012280214846FFF7A5FE2548A5
:100F4000012210211838FFF79FFA22480121183892
:100F5000FFF7BAF902208DF804008DF806408DF8ED
:100F600005008DF8075069463046FFF7EAFA0A98FF
:100F70000390ADF814400C20ADF81040ADF8160009
:100F8000ADF81240ADF8184003A93846FFF7C2FE8D
:100F9000012240F225513846FFF7A4FE8DF81D408E
:100FA00000E00EE08DF81E408DF81F5007A8FFF7F7
:100FB00077FB01213846FFF75DFE00200BB0BDE84E
:100FC000F08F4FF0FF30F9E70010014018050020C6
:100FD00000000240B86402400014014000080240D2
:100FE0008803002070B50C46054608E028884006B6
:100FF000FCD521782846FFF7E9FE14F8010B20788C
:101000000028F3D170BDFEE702E008C8121F08C136
:10101000002AFAD170477047002001E001C1121F79
:10102000002AFBD17047000010B5FFF7DDFB10B1BF
:101030004FF0FF3010BD0BA0FFF73AFD09A0FFF7FE
:10104000C1FD0CA11248FFF7CDFFFFF703FBFFF72F
:1010500001FDFFF7DBFA0F4C2046FFF76BFAFFF7B5
:10106000E3FAF9E748656C6C6F20576F726C642186
:101070000D0A000048656C6C6F20576F726C64211C
:1010800055534152545F707574730D0A000000008F
:101090000014014040420F00B8100008000000207A
:1010A0001800000008100008D010000818000020E8
:1010B00048090000181000080000000001020304A5
:1010C00001020304060708090101000000000000F6
:040000050800018965
:00000001FF
