:020000040800F2
:10000000000400209D010008ED010008E90100083E
:10001000EB010008E5010008FD02000800000000F7
:10002000000000000000000000000000F1010008D6
:10003000E701000800000000EF010008A902000825
:10004000B7010008B7010008B7010008B7010008B0
:10005000B7010008B7010008B7010008B7010008A0
:10006000B7010008B7010008B7010008B701000890
:10007000B7010008B7010008B7010008B701000880
:10008000B7010008B7010008B7010008B701000870
:10009000B7010008B7010008B7010008B701000860
:1000A000B7010008B7010008B7010008B701000850
:1000B000B7010008B7010008B7010008B701000840
:1000C000B7010008B7010008B7010008B701000830
:1000D000B7010008B7010008B7010008B701000820
:1000E000B7010008B7010008B7010008B701000810
:1000F000B7010008B7010008B7010008B701000800
:10010000B7010008B7010008B7010008B7010008EF
:10011000B7010008B7010008B7010008B7010008DF
:10012000B7010008B7010008B7010008B7010008CF
:10013000B7010008B7010008B7010008B7010008BF
:10014000B7010008B7010008B7010008B7010008AF
:10015000B7010008B7010008B7010008B70100089F
:10016000B7010008B7010008B7010008B70100088F
:10017000B7010008B7010008B7010008B70100087F
:10018000B7010008B7010008DFF80CD000F018F83C
:10019000004800471D03000800040020064880476F
:1001A00006480047FEE7FEE7FEE7FEE7FEE7FEE75C
:1001B000FEE7FEE7FEE7FEE7AD0200088901000862
:1001C000064C074D06E0E06840F0010394E80700A4
:1001D00098471034AC42F6D3FFF7DAFF200300084B
:1001E00030030008FEE77047FEE7FEE77047704700
:1001F000704700000CB500202749019000900A6864
:1002000042F480320A604FF4A0630A6802F40032BC
:100210000092019A521C0192009A12B9019A9A42D4
:10022000F3D10A68920334D5012000901A48403077
:10023000026842F0805202601848026842F480422C
:1002400002601548083002680260026842F4004209
:100250000260026842F4A0520260031F104A1A6052
:100260000A6842F080720A600A689201FCD50D4A61
:1002700040F205611160016821F00301016001682D
:1002800041F0020101600168C1F381010229FAD144
:100290000CBD00900CBD0000003802400070004012
:1002A00008544007003C0240704700000F4810B55A
:1002B000016841F0010101600C4A0021083211601F
:1002C00002680B4B1A400260031D0A4A1A6002685A
:1002D00022F48022026005480C300160FFF78AFF9B
:1002E00005494FF00060086010BD00000038024072
:1002F000FFFFF6FE1030002408ED00E0FEE702E00C
:1003000008C8121F08C1002AFAD1704770470020A0
:1003100001E001C1121F002AFBD17047FEE7000077
:100320003003000800000020000400000E03000855
:040000050800018965
:00000001FF
