:020000040800F2
:10000000C80700209D0100086F0500086B05000867
:100010006D050008190200086D0A000800000000C4
:10002000000000000000000000000000350600088D
:10003000A704000800000000710500080907000877
:10004000B7010008B7010008B7010008B7010008B0
:10005000B7010008B7010008B7010008B7010008A0
:10006000B7010008B7010008B7010008B701000890
:10007000B7010008B7010008B7010008B701000880
:10008000B7010008B7010008B7010008B701000870
:10009000B7010008B7010008B7010008B701000860
:1000A000B7010008B7010008B7010008B701000850
:1000B000B7010008B7010008B7010008B701000840
:1000C000B7010008B7010008B7010008B701000830
:1000D000B70100085D070008B7010008B701000874
:1000E000B7010008B7010008B7010008B701000810
:1000F000B7010008B7010008B7010008B701000800
:10010000B7010008B7010008B7010008B7010008EF
:10011000B7010008B7010008B7010008B7010008DF
:10012000B7010008B7010008B7010008B7010008CF
:10013000B7010008B7010008B7010008B7010008BF
:10014000B7010008B7010008B7010008B7010008AF
:10015000B7010008B70100081D020008B701000838
:10016000B7010008B7010008B7010008B70100088F
:10017000B7010008B7010008B7010008B70100087F
:10018000B7010008B7010008DFF80CD000F032F822
:10019000004800478D0A0008C8070020064880472D
:1001A00006480047FEE7FEE7FEE7FEE7FEE7FEE75C
:1001B000FEE7FEE7FEE7FEE70D07000889010008FD
:1001C00040EA01039B0703D009E008C9121F08C0D9
:1001D000042AFAD203E011F8013B00F8013B521E59
:1001E000F9D27047421C10F8011B0029FBD1801A7C
:1001F00070470000064C074D06E0E06840F0010340
:1002000094E8070098471034AC42F6D3FFF7C0FFDC
:10021000BC0A0008DC0A0008FEE7000070B5074CC5
:10022000074D2146284600F0BFF8002805D021469A
:100230002846BDE8704000F005B870BD0080002879
:10024000B8640240074A904201D2074801E00548DD
:100250001038064A8B0001EA020101D5C1607047DF
:100260008160704710640240006002407D0F7D0F86
:100270000029016802D041F0010101E021F00101F3
:10028000016070472DE9F043016821F00101016030
:100290000021016041608160C160016121214161F3
:1002A0003C493C4A3D251039904202D18D60BDE861
:1002B000F083384A4FF474661832904201D18E6050
:1002C000F5E7344A4FF474173032904201D18F6011
:1002D000EDE7304A4FF0746C4832904202D1C1F8D9
:1002E00008C0E4E72B4B2C4A6033984201D1CA6026
:1002F000DDE7284C294B7834A04201D1CB60D6E70A
:10030000DFF89080264C08F19008404501D1CC6080
:10031000CDE7DFF880804FF03D5908F1A80840454F
:1003200002D1C1F80C90C2E71E49DFF87880083985
:10033000404501D10D60BAE71A4D1835A84201D1E8
:100340000E60B4E7174D3035A84201D10F60AEE71B
:10035000144D4835A84202D1C1F800C0A7E7114D9D
:1003600010496035091FA84201D10A609FE70D4A74
:100370007832904201D10B6099E70A4A903290425C
:1003800001D10C6093E7074AA83290428FD1C1F89F
:1003900000908CE7106002403D000020400F0020DC
:1003A00000003D201064024030B5104A0024904205
:1003B00001D20F4B01E00D4B103B0E4A114205D00C
:1003C0001E2202EAD12502682A4002E0406900F0BC
:1003D0008002880001D5586800E01868064B184074
:1003E000084201D002B10124204630BD1064024011
:1003F000006002403C0F3C0F7D0F7D0F10B50C06D6
:1004000001F01E0304D54AB1446944F080044461FC
:1004100080290CD042B10168194307E0426922F0FB
:1004200080024261802902D001689943016010BDB9
:1004300030B50368124ACC6813400A682243D1E9F8
:1004400005452C432243CC6922430C6A22434C6A63
:1004500022438C6A22434C6B22438C6B22431A4307
:100460000260426922F00703D1E90B2422431A43B8
:1004700042610A6942604A6882608968C16030BD31
:100480003F801CF00021016041608160C16001611A
:1004900041618161C161016241628162C162016346
:1004A0004163816370477047F0B50023012403273F
:1004B0000D6804FA03F21540954242D1D0F800C00D
:1004C0005E0007FA06F52CEA050CC0F800C091F8AA
:1004D00004C0D0F800E00CFA06FC4CEA0E0CC0F8A0
:1004E00000C091F804C0BCF1010F02D0BCF1020FB2
:1004F0001FD1D0F808C02CEA050CC0F808C091F84C
:1005000005C0D0F808E00CFA06FC4CEA0E0CC0F866
:1005100008C0D0F804C02CEA020CC0F804C042683D
:1005200091F806C00CFA03FC1FFA8CFC42EA0C029C
:100530004260C268AA43C260CA79C568B2402A4311
:10054000C2605B1C102BB3D3F0BD4B07DB0E9A408F
:10055000C90810B500EB8100016A0F249C40A1433B
:100560000162016A1143016210BDFEE7FEE77047B8
:1005700070470000044A0029116801D0014300E0DF
:10058000814311607047000030380240044A00295E
:10059000116801D0014300E0814311607047000001
:1005A0004438024070B5204A1168204C11F00C010B
:1005B00004D06610042903D0082903D004601BE08E
:1005C000066019E01849091F0B68C3F380550B68D2
:1005D00003F03F0315B1B6FBF3F301E0B4FBF3F313
:1005E0000C680968C4F388146343C1F30141491CD2
:1005F0004900B3FBF1F1016011680F2303EA111107
:100600000B4B5C5C0168E14041601468072505EA1A
:1006100094241C5D21FA04F48460126805EA5232C5
:100620009A5CD140C16070BD083802400024F400DB
:10063000000000207047000010B54FF41651044828
:1006400000F062F9002801D04FF0FF3010BD00002B
:10065000001001400CB500202749019000900A6865
:1006600042F480320A604FF4A0630A6802F4003258
:100670000092019A521C0192009A12B9019A9A4270
:10068000F3D10A68920334D5012000901A48403013
:10069000026842F0805202601848026842F48042C8
:1006A00002601548083002680260026842F40042A5
:1006B0000260026842F4A0520260031F104A1A60EE
:1006C0000A6842F080720A600A689201FCD50D4AFD
:1006D00040F205611160016821F0030101600168C9
:1006E00041F0020101600168C1F381010229FAD1E0
:1006F0000CBD00900CBD00000038024000700040AE
:1007000008544007003C0240704700000F4810B5F5
:10071000016841F0010101600C4A002108321160BA
:1007200002680B4B1A400260031D0A4A1A600268F5
:1007300022F48022026005480C300160FFF78AFF36
:1007400005494FF00060086010BD0000003802400D
:10075000FFFFF6FE1030002408ED00E070B51B4CE2
:1007600040F225563146204600F04EF8002823D0AE
:10077000A1882046CDB2314600F02EF8154C002657
:10078000134960782A2D08D0502803D210B10428CC
:1007900015D016E0242D10D00DE060B14F280AD2FC
:1007A0000D54401CC2B262708E540949521C01F5AE
:1007B000C870FFF705FD667070BD10B1FBE74C2DEA
:1007C000F9D10D54401C607070BD00000010014054
:1007D00018000020100000200A0A01219140C9439E
:1007E000018070470029818902D041F4005101E065
:1007F00021F4005181817047002A828A01D00A4386
:1008000000E08A438282704730B501F01F02012464
:100810000025C1F3421304FA02F2012B0FD0022B80
:100820000FD0838A4FEA11210088134204FA01F4A1
:1008300000EA040001D000B10125284630BD8389BB
:10084000F0E7038AEEE700007FB50446008A0D4614
:1008500020F44051E88808432082A08941F20C61CD
:100860008843A9882A8911436A8902431143A181D7
:10087000A08A20F44071A8890843A0826846FFF747
:1008800091FE1D48844202D01C48844201D1039845
:1008900000E00298A1890904002900EBC00101EBE6
:1008A0000010296802DA4FEA410101E04FEA8101B4
:1008B000B0FBF1F26420B2FBF0F14FEA01114FEA14
:1008C00011136FF018056B4302EB8302A3891D041B
:1008D0004FF0320306D503EBC202B2FBF0F000F09A
:1008E000070005E003EB0212B2FBF0F000F00F008E
:1008F000084320817FBD000000100140001401402A
:10090000C1F30801818070472DE9F0473F4E86B062
:100910008A460546B04276D101211020FFF736FE07
:1009200001210846FFF726FE01218805FFF722FE78
:100930004FF4C060DFF8D8800490072209214046B8
:10094000FFF703FE07220A214046FFF7FEFDDFF80E
:10095000C4904846FFF796FC2F48FFF793FD2E48BA
:100960004FF00061002401604021C160A0F5C87112
:10097000816040F28F110161311D41600915C0E9AC
:100980000541C4610462446201278462C0E90B47E7
:100990004463014684634846FFF74AFD01228021F3
:1009A0003046FFF729FF012210214846FFF726FDB8
:1009B00001214846FFF75CFC02208DF814008DF8F9
:1009C00016408DF815008DF8177004A94046FFF702
:1009D0006BFDADF808400C20ADF80440ADF80A00FE
:1009E000CDF800A0ADF80640ADF80C4069462846A9
:1009F000FFF72AFF01212846FFF7F4FE002006B08A
:100A0000BDE8F087FFE74FF0FF30F8E70010014046
:100A100000000240B8640240880300202DE9F04144
:100A200005460C460846FFF7DDFB4FF0FF37B0F5F3
:100A3000C87F06D810E0726806E00346401C934267
:100A400002DB3846BDE8F0812B885B06F5D52846E9
:100A5000FFF756FF641C00E0034E21784FF00000C2
:100A60000029E8D1EEE7000010000020FEE702E0D8
:100A700008C8121F08C1002AFAD170477047002029
:100A800001E001C1121F002AFBD1704710B5FFF72A
:100A9000D3FD10B14FF0FF3010BD074C02A120462E
:100AA000FFF7BCFF00A1FAE748656C6C6F20576F39
:100AB000726C64210000000000100140DC0A000894
:100AC00000000020180000006E0A0008F40A000868
:100AD00018000020B00700007E0A00080000000097
:100AE00001020304010203040607080901000000D3
:040AF00010270000CB
:040000050800018965
:00000001FF
